:400000000010002011000000250500002505000080B500AF00F08AFA80B584B000AF021CFB1D1A70224A3B1C0B3312781A70214A3B1C0A3312781A701F4B1B68013BFB604F
:400040001AE01E4B1868391C0B31FA68131C5B009B18C31801331B780B70184B1868391C0A31FA68131C5B009B18C31802331B780B70FB68013BFB60FB68002B0ADB0F4B59
:400080001968FA68131C5B009B185B5CFA1D12789A42D6D90A4B3A1C0B3212781A60094B3A1C0A3212781A60BD4604B080BDC046CCF1FF0FCDF1FF0F3C290000CC00002085
:4000C0001CFF0B4020FF0B4080B500AF244B244A12688021C9020A431A601820FFF79CFF204B19221A60052001F09AFD1E4B1F4A1278D2B21A60052001F052FE184B184AA7
:4001000011681B4A0A401A601A4B30221A601A4B30221A60194B20221A60194B10221A60184B21221A60184B11221A60174B822212061A60164B802212061A60154B164A6E
:400140001A60164B164A1A60164B134A1A60164B114A1A60154B164A1A60BD4680BDC04600010B402CFF0B4028FF0B40E5F1FF0FFFFFFBFF080202400C02024014020240D8
:40018000180202401C0202402002024008010B4004010B40000002400100008040000240170000C08000024004000240440002401700008080B582B000AF72B6FB1D0022C2
:4001C0001A7023E0FB1D1A78131C5B009B185B003D4A9B183B603B681A78597809020A43997809040A43DB781B0613431A1C3B6819795B791B020B439BB2101C191C00F080
:4002000015FAFB1DFA1D127801321A70FB1D1B78012BD7D92D4A2E4B101C191C00F016FA2C4B2D4A1A602D4BC02292041A602C4B2C4A1A602C4B04221A602C4B2C4A1A60AA
:400240002C4B7E221A602C4BC02252031A602B4BBE221A602A4B02221A602A4B2A4A1A602A4B04221A602A4B04221A60294B992212041A60284B992212041A60274B8022C4
:4002800092051A60264B992212041A60254B802292051A60244B10221A60244B234A1278D2B202210A43D2B21A70204B1F4A1278D2B206210A43D2B21A70FFF705FF00F07D
:4002C00005FABD4602B080BDD4280000E0280000FC28000000000140000300FF040001400C000140FFEE0000000004400800044086012400000104400801044018010440F9
:400300000003044008030440B10D0000000404401804044000500F4010500F4018500F4030500F4038500F402001054000700F4010B5064C2378002B07D10548002802D0F5
:40034000044800E000BF0121217010BD3001002000000000D028000008B5084B002B03D00748084900E000BF07480168002903D0064A002A00D0904708BDC04600000000DC
:40038000D028000034010020C80000200000000080B500AF62B601F02DFD0E4B181C01F03BFD01F071FD01F03FFE01F03FFF01F089FB00F065FA00F067FD00F087FE00F002
:4003C00029FBC04600F052FB031C002BFAD100F003F8F2E73504000080B500AF002000F0BFFF031C1A1C104B1A800F4B1A880F4B9A4202D10C4B00221A800B4B1A880C4B21
:400400001B889A420DD0084B1A88094B1A80064B1B88002B05D0044B1B885B02181C01F071FBBD4680BDC046E2010020FFFF0000E401002080B582B000AF012001F0D0FD68
:4004400001F0FCFC021CBB1D1A80BB1D1B889B0B9BB2D9B27B1D03220A401A70BB1D1B881B0A9BB2D9B23B1D3F220A401A70FB1CBA1D12881A703B1D1B78022B16D002DC86
:40048000012B05D03CE0032B24D0042B2DD037E07B1D1B78002B01D101F0F6FC1E4B1B889BB21BB2181C01F0D9FC2AE07B1D1B78002B01D101F0E8FC002001F0C5FE031C95
:4004C000181C01F0F1FE031C9BB21BB2181C01F0C5FC16E07B1D1B78002B01D101F0D4FC0E4B181C01F0BAFC0BE07B1D1B78012B06D1FB1C1B781B02181C01F003FBFFE7CD
:40050000C046074B064A12681A60002001F068FDBD4602B080BDC046E2010020EFBEFFFFC00F074080B500AFFEE7C04680B586B000AF254B7B61254B3B61234B7B61234BF4
:400540003B6132E03B691B68FB603B695B68BB603B699B683B6000237B600CE0FB681A68BB681A60BB680433BB60FB680433FB607B6804337B607A683B689A42EED13B69F8
:40058000DB683B6000237B6008E0BB6800221A60BB680433BB607B6804337B607A683B689A42F2D13B6910333B617B695A1E9341DBB27A69013A7A61002BC3D102F058F9EF
:4005C000FFF7E6FEFEE7C04601000000E829000080B582B000AF00237B600FE07B68032B04D80E4B7A689200D35800E00C4B0D4A796889008B507B6801337B607B682F2B3A
:40060000ECD9FFF7D7FD084B00221A608023DB0501221A60BD4602B080BDC046000000002505000000000020C000002080B582B000AF786039607A683B68101C00211A1C6B
:4006400002F03CF9BD4602B080BDC04680B586B000AF7860396000233B6100237B612EE07B699B007A68D3181B68BB603B1C0F33BA681A70BB68FF229343BB6017E03B6905
:400680005B003A68D3181B781A1CBB68D3183A69520039688A1852781A703B6901333B613B1C0F333A1C0F321278013A1A703B1C0F331B78002BE2D17B6901337B617B691A
:4006C000062BCDD9BD4606B080BDC04680B500AF044B802292021A60012000F005F8BD4680BDC04600031A4080B584B000AF021CFB1D1A700B4B1B68FB60FB1D1B78002BB1
:4007000005D0FB68802212061343FB6003E0FB685B005B08FB60034BFA681A60BD4604B080BDC04680031A4080B582B000AFFB1D00221A7018E0FB1D1B78334AD35C013B51
:400740009BB2181C002101F023FAFB1D1B782F4AD35C013B9BB2181C002101F043FAFB1DFA1D127801321A70FB1D1B78042BE2D900F09CF9264B1B68DAB2264B1A70254BEF
:400780001B783B603B680F2293433B60224B1B78DBB21A1C0F2313403A6813433B603B68F02293433B601C4B1B78DBB21A1CF02313403A6813433B60154B3A681A60174B31
:4007C000174A1A60174B184A1A60002000F0BEFA164B164A1168164A0A401A60134B134A1268C021C9000A431A600F2001F0B8FA104B0F20191C01F023FA0F20032101F031
:4008000045FABD4602B080BDFC0000200401002000FF0840E601002062F1FF0F04000840C028A001080008400001000210000140FFF0FFFF6515000080B500AF01F09AF94F
:4008400001F0C2F90D4B0D4A1268802109060A431A600A4B094A1268802109030A431A60064B064A1268802149010A431A600F2001F060FA00F086FABD4680BD0400084053
:4008800080B500AF0C4B1B78002B04D1FFF74CFF094B01221A70FFF7CFFF00F0B1FE074B01221A70064B064A12688021C9030A431A60BD4680BDC0464E0100204C01002055
:4008C0000400084080B584B000AF021CFB1D1A70FB1DFA1D127801321A70FB1D1B78052B1BD03B1C0F33FA1D1278D2081A70FB1D1A780723134001229A403B1C0E331A70B4
:400900003B1C0F331B78084AD35C3A1C0E3212781340DBB2002BDBD000E0C046FB1D1B78181CBD4604B080BDD000002080B584B000AF021CFB1D1A70204B1B68FB60FB6807
:40094000FF229343FB60FB1D1B781D4AD35CFA681343FB60FA681B4B1340FB60FB1D1B78194AD35C1B04FA681343FB60134BFA681A60FB1D1B78154AD35C013B9BB2181CBC
:40098000002101F005F9FB1D1B78114AD35C013B9BB2181C002101F025F90E4B1B78002B09D00D4B1B68FB60FB6840221343FB60094BFA681A60BD4604B080BD08000840F5
:4009C000E8000020FFFF80FFF0000020FC000020040100204D0100200400084080B582B000AF021CFB1D1A70084B00221A70084BFA1D12781A70054B81221A70FB1D1B78EC
:400A0000181C00F039F9BD4602B080BD4F0100205001002080B500AF124B00221A70124BFF221A70104B1B78DBB2181CFFF74AFF031C1A1C0C4B1A700B4B1B78DBB2042BCF
:400A40000DD8084B1B78DBB201221343DAB2054B1A70054B1B78DBB2181C00F00DF9BD4680BDC0464F0100205001002080B500AF044B1B78DAB201231340DBB2181CBD46F1
:400A800080BDC0464F01002080B582B000AF021CFB1D1A70FB1D1A78034B5200D35A181CBD4602B080BDC0465401002080B582B000AFFB1D00221A7009E0FB1D1B78181CF3
:400AC00000F068F8FB1DFA1D127801321A70FB1D1B78042BF1D9BD4602B080BD90B587B000AF021CFB1D1A70FB1D1B78254AD35C7B61FB1D1B78244AD35C3A1C1332191C72
:400B00004900CB181370FB1D1B781F4AD25C3B1C123392001A701D4B7A699200D3581B68FB603B1C12331B780F22111C99400B1CDA43FB681340FB603B1C12331B78042216
:400B4000141C9C40231CFA681343FB60104B7A699200D3580E4A796989008A581268391C133109780720041C8C40211CC9430A401A60064B7A699200D358FA681A60BD46F3
:400B800007B090BD402900005C2900006C2900008029000090B587B000AF021CFB1D1A70FB1D1B782F4AD35C7B61FB1D1B782E4AD25C3B1C133392001A70FB1D1B782A4AC2
:400BC000D35C3A1C1232191C4900CB181370274B7A699200D358254A796989008A581268391C133109780F20041C8C40211CC9430A401A601E4B7A699200D3581B68FB60D7
:400C00003B1C12331B780722111C99400B1CDA43FB681340FB603B1C12331B780622141C9C40231CFA681343FB60114B7A699200D358FA681A600F4B7A699200D3580D4A23
:400C4000796989008A581268F91D09780648415C0120041C8C40211CC9430A401A60BD4607B090BD402900005C2900006C290000802900009429000090B585B000AF021CDA
:400C8000FB1D1A703C1C0F3400F0D3FF031C2370FB1D1A783B1C0E3318498A5C1A70FB1D1B78181CFFF742FEFB1D1B78181CFFF715FF134B1B68BB60BA68124B1340BB6089
:400CC000BB68114A1343BB600D4BBA681A600C4B0B4A126820210A431A600C4B3A1C0E3211780B4A89008A581A603B1C0F331B78181C00F0A2FFBD4605B090BD64290000B0
:400D000004000840FF1FDFFF00E020000C000840F800002080B582B000AF021CFB1D1A7000F030F8FB1D1A78064B1B6899B2064B5200D152FB1D1B78181CFFF72BFFBD4680
:400D400002B080BD0C0008405401002080B582B000AF7860094B094A1168094A0A401A607A68032313407B60044B044A11687A6852020A431A60BD4602B080BD040008400F
:400D8000FFF9FFFF80B582B000AF154B1B683B603A68144B13403B603B68A022120213433B600F4B3A681A600F4B1B683B600E4BFD2252001A60F0235B007B6002E07B6810
:400DC000013B7B60094B1A680823134002D17B68002BF4D1044B3A681A60BD4602B080BD04000840FF1FDFFF080008401000084080B582B000AF021CFB1D1A70FB1D1A7815
:400E0000FB1D19780E4B4900C95A0E4B5200D152FB1D1B780C4A0021D154FB1D1B780B4A0021D154FB1D1A78FB1D1978044B4900C95A074B5200D152BD4602B080BDC0461C
:400E400054010020740100208001002088010020E801002080B582B000AF021CFB1D1A70FB1D1B78181CFFF7B9FDC046FFF7FEFD031C002BFAD1FB1D1B78181CFFF7B8FF1C
:400E8000BD4602B080BDC04680B582B000AFFB1D00221A7009E0FB1D1B78181CFFF7DAFFFB1DFA1D127801321A70FB1D1B78042BF1D9BD4602B080BD90B587B000AF021C74
:400EC000FB1D1A70FB1D1A783B1C153377498A5C1A703B1C15331A783B1C143374498A5C1A70FB1D19783B1C1233724A49008A5A1A80FB1D1A78704B5200D35A3C1C123491
:400F00003A1C12321288101C191C00F0E7FA031C2380FB1D1A78684B5200391C12310988D152FB1D1B78181C00F026FCFB1D1A78624B5200D35A3A1C123212889A4215D3CF
:400F4000FB1D1B785E4A0021D154FB1D1A785B4B5200D25A3B1C1633391C123109888A1A1A803B1C153301221A700FE0FB1D1A78524B5200D15A3B1C16333A1C1232128830
:400F80008A1A1A803B1C153300221A703B1C15331B78002B1ED13B1C16331B88142B19D9FB1D1B78464AD35C042B0AD9FB1D1B78181CFFF71DFFFB1D1B78414A0021D154FF
:400FC0004AE0FB1D1B783E4AD25C0132D1B23C4AD15441E03B1C14331B789BB23A1C163212889A4209D93B1C16331B88132B33D83B1C15331B78002B2ED1FB1D1A782F4B64
:401000005200D35A1B02FB60FB1D1B782D4AD35CFA681343FB603B1C12331B88FA68D318FB60FB1D1A78254B5200D35AFA68D31AFB60FB1D1A78FB681B0A99B21F4B5200F2
:40104000D152FB1D1B78FA68D1B21E4AD154FB1D1B781B4A0021D1543B1C14331B789BB23A1C163212889A4218D93B1C15331B78002B13D03B1C16331B88FF2B05D9FB1DB4
:401080001B78114AFF21D1540DE0FB1D1B783A1C16321288D1B20C4AD15404E0FB1D1B78094A0021D154BD4607B090BD642900001001002054010020E8010020740100202F
:4010C000F4010020800100208801002080B582B000AFFB1D00221A7020E0BB1DFA1D1278D2081A70FB1D1A780723134001229A407B1D1A70BB1D1B780C4AD35C7A1D127883
:401100001340DBB2002B04D0FB1D1B78181CFFF7D3FEFB1DFA1D127801321A70FB1D1B78042BDAD9BD4602B080BDC046D000002080B584B000AFFB1D1870BB1D19707B1D8E
:401140001A703B1C0E33FF221A703B1C0D3300221A70FB1D1A78204BD318BB603B1C0F3300221A702AE03B1C0F331B78BA68D3181B787A1D12789A4219D23B1C0F331B7815
:40118000BA68D3181B783A1C0D3212789A420ED23B1C0E333A1C0F3212781A703B1C0F331B78BA68D2183B1C0D3312781A703B1C0F333A1C0F32127801321A703A1C0F3280
:4011C000BB1D12781B789A42CDD33B1C0E331B78181CBD4604B080BD8801002090B589B000AF041C081C111C1A1CFB1D1C70BB1D18707B1D1970BB1C1A80BB1D1A78564B0D
:40120000D318FB613B1C1B33FA1D1278013A1A703B1C1A33FA1D127801321A70FB1D1B78FA69D3181A784D4B5A70FB1D1B78002B0BD14A4B00221A703B1C1A331B78FA69E0
:40124000D3181A78454B9A7022E0FB1D1A787B1D1B78013B9A420BD13B1C1B331B78FA69D3181A783D4B1A703C4B00229A700FE03B1C1B331B78FA69D3181A78374B1A709C
:401280003B1C1A331B78FA69D3181A78334B9A70324B1B783A1C303212789A4209D22F4B1A783B1C30331B78D31ADAB22B4B1A7002E02A4B00221A70284B5A783B1C3033B2
:4012C0001B78D31ADAB2254B5A70244B9B783A1C303212789A4209D2204B9A783B1C30331B78D31ADAB21D4B9A7002E01B4B00229A701A4B9B781A1C184B1B78D31A7B6197
:40130000164B1B781A1C154B5B78D218134B9B78D3183B617B691B02181C396901F046FA031C1A1CFB1D1B781B02D3183B61BB1C1A883B6953433B613B69FE22D2019B1829
:401340001A0C3B1C0F331A703B1C0F331B78181CBD4609B090BDC046880100209401002090B587B002AF021CFB1D1A70FB1D1A783B1C0D3352498A5C1A70FB1D1A783B1C1D
:401380000C3350498A5C1A70FB1D1A783B1C0B334D498A5C1A70FB1D1A783B1C0A334B498A5C1A70FB1D1B78494AD35C3C1C09343A1C0B3211783A1C0A321278081C111CD3
:4013C0001A1CFFF7B5FE031C23703B1C09331B78FF2B5DD0FB1D1A783E4B5200D35AFA1D12783D498C5C3A1C093210783A1C0B3211783A1C0A3212780094FFF7EFFE031C37
:401400001A1C3B1C0E331A803B1C0C331A781F2313404ED03B1C08333A1C0D32127801321A703B1C0D331B78254AD35C002B0FD13B1C08331B783A1C0E321288D1B2204AE6
:40144000D1543B1C0D331B781D4A0121D15430E03B1C0C331A78102313402AD03B1C08331B78174AD35C3C1C0E343A1C0E321288101C191C00F050F8031C23803B1C08334B
:401480001B783A1C0E321288D1B20D4AD15410E03B1C0E33012252421A803B1C0C331A781F23134005D03B1C0D331B78044A0021D1543B1C0E331B88181CBD4605B090BDCD
:4014C00018010020B4290000A8290000AC2900000C010020B02900001001002080B584B000AF0A1CBB1D011C19803B1D1A80BB1D1A883B1D1B88D318FB603B1D1B885B002A
:40150000FA68D318FB60FB689B08FB60FB689BB2181CBD4604B080BD80B582B000AF0A1CBB1D011C19803B1D1A80BA1D3B1D12881B889A4205D9BB1DBA1D1288013A1A80CA
:401540000AE0BA1D3B1D12881B889A4204D2BB1DBA1D128801321A80BB1D1B88181CBD4602B080BD90B583B000AFFC1D00F061FB031C23701F4B01221A601F4B1B78DBB2DD
:40158000181CFFF7C7FB1D4B1B78DBB2DBB25BB2002B08DA194B1B78DBB201229343DAB2164B1A701DE0144B1B78DBB2181CFFF789F9031C1A1C104B1A700F4B1B78DBB240
:4015C000042B06D80C4B1B78DBB2181CFFF754FB07E00A4B1B78DBB201229343DAB2074B1A70FB1D1B78181C00F027FBBD4603B090BDC04614000840500100204F010020FA
:4016000080B582B000AF4D4B05221A704B4B01225A704A4B4A4A5A60484B4A4A9A60474B494ADA60454B494A1A61444B484A5A61424B484A9A61414B474ADA613F4B474A5E
:401640001A623E4B464A5A623C4B464ADA623B4B18221A85394B444A1A86384A32230121D15400F0DFF9FB1D00221A7010E0FB1D1A78BB1D37498A5C1A70BB1D1A78364BBE
:4016800092003A49D150FB1DFA1D127801321A70FB1D1B78042BEAD900F0D0F8274A8023DB00101C191C00F082FE244B181C00F09BFE2F4B01221A70244B0120191C00F061
:4016C0005FF91E4B181C00F0DBF8FB1D00221A7010E0FB1D1A78BB1D1E498A5C1A70BB1D1A781D4B92002149D150FB1DFA1D127801321A70FB1D1B78042BEAD90F4A1D4B62
:40170000101C191C00F053FE0C4B181C00F0D6FEFB1D00221A7009E0FB1D1B78181C00F02BF8FB1DFA1D127801321A70FB1D1B78042BF1D9BD4602B080BDC046A001002046
:40174000E8000020F0000020B8290000FC0000200401002064290000F8000020A8290000AC29000005190000840400000000FF074D010020CC06000090B587B002AF021CAD
:40178000FB1D1A70FB1D1A783B1C0F3326498A5C1A70FB1D187825493B1C0F331A78244B244C009400F08EFF3B1C0F331B78204AD35CBB60BB68DB2B08D83B1C0F331B781F
:4017C000BA68D208D1B21C4AD15429E0BB68EC2B08D83B1C0F331B78BA681209D1B2164AD1541DE0BB68F42B08D83B1C0F331B78BA685209D1B2104AD15411E0BB68F92B49
:4018000008D83B1C0F331B78BA689209D1B20A4AD15405E03B1C0F331B78074A0021D154BD4605B090BDC04664290000540100200C010020100100209801002080B500AF33
:401840000C4B0C4A11680C4A0A401A60094B094A11680A4A0A401A60064B064A1268802189000A431A60034B024A12681A60BD4680BDC04608000840FFFCFFFFFFFFFFFCCE
:4018800080B584B000AF78603B1C0F3300221A700EE07B689A683B1C0F331B78D3187F221A703B1C0F333A1C0F32127801321A707B681B783A1C0F3212789A42E9D30E4BDF
:4018C0000D4A11680D4A0A401A600B4B0A4A11680B4A0A401A60084B074A1268802149000A431A60044B044A1268802189040A431A60BD4604B080BD08000840FFFCFFFFA9
:40190000FFFFFFFC80B584B000AF0A1CFB1D011C1970BB1D1A700023BB603B1C0F3300221A701AE0FB1D1B78181CFFF757F8C046FFF79CF8031C002BFAD1FB1D1B78181C2B
:40194000FFF7A2F8031CBA68D318BB603B1C0F333A1C0F32127801321A703A1C0F32BB1D12781B789A42DDD3BB1D1B78B868191C00F0CEFE031C9BB2181CBD4604B080BDF1
:4019800080B588B000AF786039600023BB6100233B610023FB613AE000237B611F4AFB69D3181B78FB601E4AFB69D3181B78BB61BA69FB68D3183B610FE03A68BB69D3184B
:4019C0001B781A1C7B699A4204D93A68BB69D3181B787B61BB690133BB61BA693B699A42EBD30F4AFB69D3181B78BB6108E03A68BB69D3187A69D2B21A70BB690133BB6137
:401A0000BA693B699A42F2D3FB690133FB61FA697B689A42C0D3BD4608B080BDAC290000A829000080B500AF034B034A126840218A431A60BD4680BD0400084080B500AFE6
:401A40000E4B8022D2041A600C4B0C4A12681A600A4B0A4A12681A60094B0C221A60002000F07CF8074B181C00F03EF8012000F049F8054B31221A60BD4680BD00010540BC
:401A800024010540FFFF00002801054090B583B000AFFC1D00F0CDF8031C2370084B084A126801210A431A60FB1D1B78181C00F0C4F80120182100F033F8BD4603B090BD9E
:401AC0000000054080B500AF064B1B78002B04D1FFF7B4FF034B01221A70FFF7D7FFBD4680BDC046D401002080B582B000AF7860034B7A681204120C1A60BD4602B080BD70
:401B00001401054080B582B000AF7860034B7A681204120C1A60BD4602B080BD0C01054090B585B000AF786039603C1C0F3400F080F8031C2370084B3A687968081C904022
:401B4000021C1A603B1C0F331B78181C00F075F8BD4605B090BDC0460800054080B582B000AF7860024B7A681A60BD4602B080BD3801054080B500AF044B044A1268802115
:401B800009060A431A60BD4680BDC0464000024080B584B000AF0A1CBB1D011C19807B1D1A70084B1B681B0C1B04FB60BB1D1A88FB681343BB60034BBA681A60BD4604B033
:401BC00080BDC0464000024080B500AF044B044A1268802109060A431A60BD4680BDC0460000024080B584B000AF0A1CBB1D011C19807B1D1A70084B1B681B0C1B04FB60C1
:401C0000BB1D1A88FB681343BB60034BBA681A60BD4604B080BDC04600000240000000000230800804D0C0460138FDD1C046C0467047EFF3108072B6704780F310887047BF
:401C400080B584B000AF021C3960FB1D1A7080239B05FB60FB1D1B781F2B02D9002000F095F8FB1D1B7810339B00FA68D3181B68BB60FB1D1B7810339B00FA68D3183A68FC
:401C80001A60BB68181CBD4604B080BD90B587B000AF0A1CFB1D011C1970BB1D1A70BB1D1B78032B02D9002000F070F8FB1D1B781F2B02D9002000F069F8FB1D1A780323F1
:401CC0001340DB0006337B613C1C1334FFF7B1FF031C2370FB1D1B789B08DBB29B0014495B181B68FB607B690322111C99400B1CDA43FB681340FB60BB1D1A787B69111CA7
:401D000099400B1CFA681343FB60FB1D1B789B08DBB29B00064A9B18FA681A603B1C13331B78181CFFF789FFBD4607B090BDC04600E400E080B582B000AF021CFB1D1A70B2
:401D4000064BFA1D11781F220A400121081C9040021C1A60BD4602B080BDC04600E100E080B582B000AF021CFB1D1A70064BFA1D11781F220A400121081C9040021C1A6080
:401D8000BD4602B080BDC04680E100E080B582B000AF021CFB1D1A7001BEBD4602B080BD80B582B000AF021CBB1D1A80BB1D1B88044A12785343181CFFF732FFBD4602B0C4
:401DC00080BDC0462401002080B500AF00F072F8BD4680BD80B500AF054B054A1268802109060A431A6000F023F8BD4680BDC0460000074080B500AF064B1B78002B04D109
:401E0000044B01221A70FFF7DFFFFFF7E3FFBD4680BDC046D801002080B582B000AF7860024B7A681A60BD4602B080BDDC01002080B500AF00F0C0F8BD4680BD80B582B002
:401E400000AF00237B60044B1B687B607B68181CBD4602B080BDC0464003074080B582B000AF7860C046064B1A680F231340082BF9D0044B7A681A60BD4602B080BDC04684
:401E8000080207404002074080B500AF074B074A1268802149020A431A60044B034A1168034A0A401A60BD4680BDC04604020740FFFFFEFF80B500AF174B184A1A60184B5B
:401EC0000D221A60174B184A1A60184B07221A60174B154A1A60174B00221A6000F076F8154B181C00F036F8032000F03FF8134B00221A60124B00221A60124B00221A6076
:401F0000114B00221A60114B0C221A60104B00221A60BD4680BDC046000007400B00000120000740000307400F0100800403074000020740040207404D230000880E0740A3
:401F4000C80E0740480F0740080F0740C80F0740880F074080B582B000AF7860024B7A68DA66BD4602B080BD0000002090B585B000AF021CFB1D1A701E23FB603C1C0B34C1
:401F8000FFF757FE031C23700A4B0A4A126892009108FA1D1078FA68041C9440221C0A431A603B1C0B331B78181CFFF746FEBD4605B090BD08E400E080B500AF024B8022A2
:401FC00012011A60BD4680BD00E100E080B500AF024B802212011A60BD4680BD80E100E080B584B000AF021CFB1D1A700D4B1B68DAB23B1C0F3301218A431A70FB1D1A7877
:4020000001231340D9B23B1C0F333A1C0F3212780A431A70034B3A1C0F3212781A60BD4604B080BD0000044080B500AF064B1B78002B04D100F00AF8034B01221A7000F047
:40204000E5F8BD4680BDC046E001002090B585B000AF0E200321FFF719FE544B0E20191CFFF7EEFD524B01221A60524B524A1A60524B534A1A60534B534A1A60534B80223B
:40208000D2051A60524B534A1A60534B514A1A60524B524A1268802149020A431A60504B00221A604F4B00221A604F4B01221A604E4B02221A604E4B1B687B607B6801222A
:4020C00013437B604A4B7A681A600023FB6067E0484BFA689200D258DC239B0113407B60FB689B00444A9B187A681A60414BFA689200D258012313400AD0394B384A11686A
:40210000FA680120041C9440221C92B20A431A60384BFA689200D258022313400AD0314B304A1168FA680120041C9440221C92B20A431A602F4BFA689200D25880239B00E7
:40214000134003D080235B00BB6002E080235B01BB60284BFA689200D25880235B00134005D1264BFA6852000021D15204E0234BFA6852000021D152BB68214A53438022F3
:40218000D2009B18002B01DA1E4C1B19DB129BB219B21D4BFA689200D150FB680133FB60FB68002B94D0BD4605B090BD8D22000020001A4000001A40C002005304001A4095
:4021C000FC00008018001A400000FF0F1C001A4010001A400400040014001A4000031A4028021A4038021A4018021A40000F1A4030001A40C029000080001A40500200207C
:4022000010270000FF0700005402002080B500AF054B054A1268802109060A431A600A20FFF7BEFDBD4680BD00001A4080B500AF044B044A1268802149020A431A60BD4651
:4022400080BDC04604001A4080B584B000AF78607B68002B02D00020FFF798FD7B68002B08D17B689B00084A9B181B681B041B0CFB6001E00023FB60FB689BB21BB2181CA4
:40228000BD4604B080BDC04680011A4080B582B000AF044B1B687B60024B7A681A60BD4602B080BD10021A4080B588B000AF7860224B1B889BB29BB21BB2BB61204B1B88EA
:4022C0009BB29BB21BB27B617B687A695A43BB699B02D3183B613A691A4B9A420EDD3B69C822D203D31A00D50F331B11DB00181C552100F05BFA031CFB610EE03B69A022F5
:4023000092039B18002B00DA0F331B11DB00181C372100F04BFA031CFB613A69FB69D318802212029B18FB60FB68002B01DA064A9B181B14181CBD4608B080BD66F1FF0FE9
:4023400064F1FF0FFFFF0E00FFFF000080B500AF044B1B68002B02D0024B1B689847BD4680BDC046DC010020F7B59C180023071C0191009223700826802520786A46284368
:40238000207004211078FB6A98470199884202D22078A8432070013E6D08002EEDD12278D7B2F82F01D9082672422270F7BD70B5051C0E1C00242B789C4213D2281C221CE9
:4023C000311C6B68FFF7D0FF6A68105D002807D1A9680A191378012B02D958081070EDE70134E8E770BD0000F7B5051C00242B78A3425FD92A8D68690427182A00D8022767
:40240000075569694020095D00F082F92E6910213055EB6A201C98476A682B8D165D30227043800119014243CE1AB301F1188E02B24235D90209831A009340262969686923
:4024400076080191015D301C00F062F9019A10556B68191908784200F72A00D9F8220A70EB6A1021201C98476968009A0B5D43437343BE420ED9934208D86B697600195DF6
:40248000F0B200F045F92F69385510E00A498842D4D9F2E79342F0D9074FB842EDD806E068692E69015D381C00F032F930550134E4B29CE7F7BDC04631070000F0B5051C3B
:4024C00087B000266B789E4264D2296A6A6A8C5D905DE9692718304AB300600002970027CF500193831803932C492D4B4218C0180492059002998C4244D2EB68298D185D40
:402500002A8E4843A96850430B5D6A6929699C46125D0B5D53436246D9B2514300F0F8F82049400006228C465A2808D8EB69019A9A18116861450AD26346136007E0013A12
:40254000002AF3D0634659088C464008ECE7164A164B810810551955154A164BC0080F2110551955039A01204142D1530499059A0023CB53D353181C0F4B0237E11808708F
:402580000134B7E7EC69019F0136E3191A681004186097E707B0F0BD04020020300200203C020020FFFF00001802002048020020FC0100202802002010020020F0B5394BF6
:4025C0004700DE5D7A5A85B0911BFA52CCB2364B0194195C354E6D462C79354B4D00B95B344E1B5C0291BF5B3349039766B2095CEDB20096002E01DA0135EDB20F273D4094
:40260000009F002F02DA019C6642F4B264B29C4203DA012B06D9013B00E00133DBB2FF263F2B01D89F00FEB2214F3B540F2D2CD0002D27D0B44228DC029E141CB24202D9A1
:402640006C4608273C5B039FA4B2161CBA4202D26A460C26B65AB2B2092901D80131C9B20A2914D1171BFEB2B34206D9134F3E5CB708BB4203D9013B00E00133DBB2104E3D
:40268000335404E0141C291C01E0141C0021064F084E43003D549A53044D074A5C53115405B0F0BD3C0200202802002004020020FC010020300200201002002018020020DB
:4026C0004802002070B5061C1D1C141CFFF776FF0D4B0E48995D865DFF233F2E01D8B200D3B270B2002802DB7200D6B200E0FF26994202D94B08DEB200E0191C0720814370
:402700002955049D2E5570BD1802002048020020002934D00123002210B488422CD301242407A14204D2814202D209011B01F8E7E400A14204D2814202D249005B00F8E7CA
:40274000884201D3401A1A434C08A04202D3001B5C0822438C08A04202D3001B9C082243CC08A04202D3001BDC082243002803D01B0901D00909E3E7101C10BC7047002814
:4027800001D00020C04307B4024802A14018029003BDC046D90000000029F0D003B5FFF7B9FF0EBC4243891A1847C046002941D010B4041C4C40A44601230022002900D576
:4027C0004942002800D5404288422CD301242407A14204D2814202D209011B01F8E7E400A14204D2814202D249005B00F8E7884201D3401A1A434C08A04202D3001B5C08CB
:4028000022438C08A04202D3001B9C082243CC08A04202D3001BDC082243002803D01B0901D00909E3E7101C6446002C00D5404210BC7047002806D003DB0020C0434008E6
:4028400001E08020000607B4024802A14018029003BDC046190000000029EBD003B5FFF7A7FF0EBC4243891A1847C0467047C04670B50E4B0E4D0024E81A85101E1CAC4258
:4028800004D0A100725890470134F8E700F09AF80849094A0E1C541AA5100024AC4204D0A300F05880470134F8E770BDD0290000D0290000D0290000D829000000B5821867
:4028C000031C934202D019700133FAE700BD00000000000000300F40000400400F40000404300F4001310F4003330F4002400F4005410F4003420F400E430F4038803E4088
:4029000058045F011801B401E280E6105304D42062048B048E049708D8406C407008DC0319082301610289088F01A102B448B502C608C808D802E201E608EC0804000000C9
:4029400001010101010000000200000004000000080000001000000020000000010203040500000000000000000000000000014004000140080001400C0001401000014098
:40298000080004400801044008020440080304400804044000000440000104400002044000030440000404400000000005000000C01F000016000000040404040400000025
:4029C00000000000F8B5C046F8BC08BC9E46704759030000D1050000F8B5C046F8BC08BC9E46704731030000F8290000C8000020680000002801000000000000C0F1FF0F8C
:402A00001F0000000801044008010440080104400801044008010440C8C8C8C8C800000050505050500000000000FF0F1010101010000000020202020200000064000000B2
:402A400014000000010000000100000000366E01C05D0000180000000000E02E00000000000000000000000000000000000000000000000000000000000000000000000058
:402A80000000000000000000000000000000000000000000000000000000000000000000000000000000000000000000000000000000000000000000000000000000000016
:402AC00000000000000000000000000000000000000000000000000000000000000000000000000000000000000000000000000000000000000000000000000000000000D6
:402B00000000000000000000000000000000000000000000000000000000000000000000000000000000000000000000000000000000000000000000000000000000000095
:402B40000000000000000000000000000000000000000000000000000000000000000000000000000000000000000000000000000000000000000000000000000000000055
:0200000490303A
:02000000E19588
:0200000490402A
:200000000000000000000000000000000000000000000000000000000000000000000000E0
:0200000490501A
:0C000000000204C81193110104D5F3287C
:0200000490600A
:0100000001FE
:00000001FF