:40000000020FD3008F828E83E0540100000070F82278FFE4F6D8FD021031EC4D6011E8497017ED33EC3304600DE4FCFFFEFD22E933E8330470F80202E31202AE5804600973
:40004000E4CC248150062850090202ED2840030202EAC0E0EB4A7044B98006D0E0FB0202D9EF4E701CBD8008EBFFEAFEE9FD80EBE98DF0A4FEE5F0020103E9CDF9EAFEEB24
:40008000FFEF89F0A4FCE5F0CE89F0A42EFFE435F0CD89F0A42DFEE435F08067EF4E7005BD80D780C3EF8BF0A4ACF0EE8BF0A42CFCE435F0F8EF8AF0A42CE5F038FCE433FC
:4000C000CB8DF0A42CFCE5F03BF8EE8AF0A42CFCE5F038F8E433CF89F0A42CFCE5F038CF3400CE89F0A42FFFE5F03EFEE433C98DF0A42EFEE5F039CD8AF0A42FFFE5F03EDF
:40010000FEE43DFD33D0E0FB50070BBB000F0202EDEC2CFCEF33FFEE33FEED33FD0202C50202EDEC5D046005E8590470030202E31202AE580460F6EC4860F2EC7004FDFED7
:40014000FF22C860DB2481C85009C398600250060202EA9850CAF582E9294B4A7005AB820202D975F0007C1A7880C3EF9BEE9AED99400DC3EF9BFFEE9AFEED99FDE842F03B
:40018000DC23ACF0D0E0FFD0E0FED0E0FDAB8220E7101BEB60BAEC2CFCEF33FFEE33FEED33FD0202C5E803F830E705C0F075F000EF2FFFEE33FEED33FD40B830E7C280AA94
:4001C00074F8CC6480CCC86480C8F58204604FC3EB9FF5F0EA9E42F0E99D42F0E89C45F0603C501DE5825FFFE582D313CB5BCBF42B5582FB50280ABA002409B90020088055
:400200001DE5825BFBE582D313CF5FCFF4C3132F5582FF50090EBE00050DBD00010CC3EB9FF5F0EA9E42F0E99D42F0E89C45F06007CC4820E701B3EC2275F020800E75F0B1
:4002400010800575F0087D007E007F003392D530D5031204F4EC334010EF33FFEE33FEED33FDEC33FCD5F0ED22E5F0247EA2D513CC92E7CDCEFF22EDD2E7CD33EC3392D56D
:4002800024814006E4FFFEFDFC22FCE4CFCECDCC24E0501174FF80EDC3CC13CCCD13CDCE13CECF13CF0470F030D5DE0204F4E9D2E7C933E833F892D5EDD2E7CD33EC33FC67
:4002C0005002B2D522EC30E7100FBF000C0EBE00080DBD00040BEB6014A2D5EB13FCED92E7FD2274FFFCFDFEFF22E480F8A2D574FF13FC7D80E480EFBB010689828A83E02A
:40030000225002E722BBFE02E32289828A83E49322BB010689828A83F0225002F722BBFE01F322EF8DF0A4A8F0CF8CF0A428CE8DF0A42EFE22C5F0F8A3E028F0C5F0F8E5D3
:4003400082158270021583E038F022BB010A89828A83E0F5F0A3E022500687F009E71922BBFE07E3F5F009E3192289828A83E493F5F074019322BB010A89828A83F0E5F000
:40038000A3F0225006F709A7F01922BBFE06F3E5F009F31922EF2BFFEE3AFEED39FDEC38FC22C3EF9BFFEE9AFEED99FDEC98FC22E88FF0A4CC8BF0A42CFCE98EF0A42CFCB6
:4003C0008AF0EDA42CFCEA8EF0A4CDA8F08BF0A42DCC3825F0FDE98FF0A42CCD35F0FCEB8EF0A4FEA9F0EB8FF0A4CFC5F02ECD39FEE43CFCEAA42DCE35F0FDE43CFC2275EF
:40040000F008758200EF2FFFEE33FECD33CDCC33CCC58233C5829BED9AEC99E58298400CF582EE9BFEED9AFDEC99FC0FD5F0D6E4CEFBE4CDFAE4CCF9A88222B800C1B9001A
:4004400059BA002DEC8BF084CFCECDFCE5F0CBF97818EF2FFFEE33FEED33FDEC33FCEB33FB10D703994004EB99FB0FD8E5E4F9FA227818EF2FFFEE33FEED33FDEC33FCC95D
:4004800033C910D7059BE99A4007EC9BFCE99AF90FD8E0E4C9FAE4CCFB2275F010EF2FFFEE33FEED33FDCC33CCC833C810D7079BEC9AE899400AED9BFDEC9AFCE899F80FF0
:4004C000D5F0DAE4CDFBE4CCFAE4C8F922EF5BFFEE5AFEED59FDEC58FC22EF4BFFEE4AFEED49FDEC48FC22CFF4CFCEF4CECDF4CDCCF4CC22C3E49FFFE49EFEE49DFDE49CF7
:40050000FC22EB9FF5F0EA9E42F0E99D42F0E89C45F022E8600FECC313FCED13FDEE13FEEF13FFD8F122E8600FEFC333FFEE33FEED33FDEC33FCD8F122E0FCA3E0FDA3E088
:40054000FEA3E0FF22E0F8A3E0F9A3E0FAA3E0FB22ECF0A3EDF0A3EEF0A3EFF022A42582F582E5F03583F58322E0FBA3E0FAA3E0F922F8E0FBA3A3E0F925F0F0E582158213
:4005800070021583E0FA38F022EBF0A3EAF0A3E9F022E493FB740193FA740293F922D083D082F8E4937012740193700DA3A393F8740193F5828883E4737402936860EFA34F
:4005C000A3A380DFE50C2582F582E50B3583F583B50B0485820C2210AF0685820CF50B2285820CF50BD2AF22EC8EF0A4CCC5F0CCCDF8EFA4CEC5F02DFDE43CFCE8A42EC880
:40060000C5F03DFDE43CFCEFA4FFE5F028FEE43DFDE43CFC22E709F608DFFA8046E709F208DFFA803E88828C83E709F0A3DFFA8032E309F608DFFA806EE309F208DFFA80A1
:400640006688828C83E309F0A3DFFA805A89828A83E0A3F608DFFA804E89828A83E0A3F208DFFA804280D280FA80C680D4805580F28029801080A680EA809A80A880DA80C7
:40068000E280CA802988848C8589828A83E493A30586F0A30586DFF5DEF3800B89828A83E493A3F608DFF9ECFAA9F0EDFB2288848C8589828A83E0A30586F0A30586DFF676
:4006C000DEF480E389828A83E493A3F208DFF980D688F0EF60010E4E60CD88F0ED2402B4040050C3F582EB2402B4040050B92323458223900665737B007A4679E81221848A
:40070000EF4405FD7B007A4679E8122190750A00E50AC39408503AAF0AEF75F005A424D4F582E43421F583AF82AE838E088F09AE08AF098F828E83120592AE08AF098F82B0
:400740008E83740393FC740493FD1220A0050A80BF7B087A007900121E457B087A0279C0C003C002C0017B007A767950900057120589D001D002D0037F047E00121BA37B54
:40078000017A507903122184EF4402FD7B017A5079031221907B017A507913122184EF4402FD7B017A5079131221909043A0E0FFEF4440FF9043A0EFF09043C2E0FFEF4477
:4007C00010FF9043C2EFF07B087A027988C003C002C0017B007A517902900057120589D001D002D0037F087E00121BA37B087A027990C003C002C0017B007A5179F290000E
:4008000057120589D001D002D0037F087E00121BA37B087A027998C003C002C0017B007A517922900057120589D001D002D0037F087E00121BA37B087A0279A0C003C002D0
:40084000C0017B007A517932900057120589D001D002D0037F087E00121BA37B087A0279A8C003C002C0017B007A517942900057120589D001D002D0037F087E00121BA3BB
:400880007B087A0279B0C003C002C0017B007A517962900057120589D001D002D0037F087E00121BA37B017A0C795B7DE41221909044F47401F0904322E0FFEF4408FF9012
:4008C0004322EFF09046ECE0FFEFC394055006904689743AF090480074F1F0120B1A90480074B1F0121B307B007A4379A0C003C002C0017B007A4379B0900057120589D078
:4009000001D002D0037F0E7E00121BA39043B0E0FFEF54FDFFEFF02290004DEFF090004EECF0A3EDF0900050EAF0A3EBF090004DE0FFEF12059E094604097307099E080978
:40094000C90A000009F4900052E0FFEFD3940F40117B0C7A017918122184900053EFF00209F97B0C7A01791C122184900053EFF00209F9900052E0FFEFD3940F40107B0C0F
:400980007A017919122184900053EFF0806B7B0C7A01791D122184900053EFF0805B900052E0FFEFD3940F40107B0C7A01791A122184900053EFF080407B0C7A01791E12EB
:4009C0002184900053EFF08030900052E0FFEFD3940F40107B0C7A01791B122184900053EFF080157B0C7A01791F122184900053EFF08005900053E4F090004DE0FFEF606C
:400A00003B90004DE0FFEF6401603190004DE0FFEF6402602790004DE0FFEF6403601D90004DE0FFEF6405601390004DE0FFEF6406600990004DE0FFEFB4090A900054E474
:400A4000F0A3E4F0801D900053E0FFEF3395E0FEEF7805C333CE33CED8F9FF900054EEF0A3EFF0900054E0FEA3E0FF90004EE0FCA3E0FDED2FFFEC3EFE900056EEF0A3EFBF
:400A8000F0900050E0FEA3E0FF900056E0FCA3E0FD1205E89000581205517B007A807900780090005812053912043B900056EEF0A3EFF0900052E0FFEFC3940E5037900014
:400AC00056E0FEA3E0FF900052E0FDC3740E9DFDEFA805088005CEC313CE13D8F9FF900056EEF0A3EFF0900052E0FFEF04FF904E0EEFF08006904E0E740FF0900056E0FEB7
:400B0000A3E0FF904E0CEFF0900056E0FEA3E0FFEEFF7E00904E0DEFF0227B007A4079807D017C001221759040827418F07B007A4079847D087C001221759040867418F082
:400B40007B087A0279B8C003C002C0017B007A417900900057120589D001D002D0037F087E00121BA39043007402F09040007408F09042007403F07B0C7A01790812218496
:400B80009046A1EFF07B007A4279227D087C001221757B007A4279207D517C10122175900051E4F07F197E007D007C0090004D12055190004D120539D3EF9400EE94004044
:400BC0004E900051E0FFEF64036044904225E0FFEF5401FF7E00900051E0FEEE25E0FEEE4FFFEF5403FF900051EFF07FE07E017D007C00121C0090004D1205397BFF7AFF40
:400C000079FF78FF12039590004D12055180A37B007A4079047D007C011221759040047407F0904006E4F09040087448F0904004E4F09040017402F090400B7404F09043FD
:400C4000A2E0FFEF4403FF9043A2EFF09043A1E0FFEF4403FF9043A1EFF09043A0E0FFEF4480FF9043A0EFF02290004DEFF0900075E4F0900070E0FFEF70519058967407FA
:400C8000F0905897E4F090589EE4F0905B07E0FFEF4418FFEFF0905893E4F0905B88E4F0905B89E4F0905880740AF0905881E4F0905882747AF0905883E4F090588DE4F0DC
:400CC000904E017414F0904E147401F090004DE0FFEF64016003020DA7904E007436F0904E027404F0904E037406F0904E04E4F0904E05E4F0904E06740FF0904E08E4F094
:400D0000904E09E4F0904E0AE4F09058847414F0905885740BF09058867431F0905887E4F09058887412F09058897413F090588A7444F090588B7448F090588C7401F090C6
:400D4000588E7401F090588F7411F09058907419F09058917497F07F52121A6F9058947458F0905895E4F090589A7405F090589B7402F090589C7401F090589DE4F07F0049
:400D80001220857F337E007D007C0090006B1205517D077F1D1218447C217DB87F1D12162E9044C37420F022C0E0C0F0C083C082C085C084C086758600C093759300C0D0D7
:400DC00075D000C000C001C002C003C004C005C006C0077F01121DE7121F8B900045EEF0A3EFF0900045E0FEA3E0FFEEC413135403FF7E00EF5403FF900047EFF09000455A
:400E0000E0FEA3E0FFEEFF7E00EF543FFF900048EFF0900045E0FEA3E0FFEF54FFFF900049EFF0900048E0FFEF12059E0E3C010E58020E74030E900400000EA1900047E0E6
:400E4000FFEF70057FFE1213F1121AB2900079E0FF7E00121BD78049900047E0FFEF70057FFD1213F1121AB290007AE0FF7E00121BD7802D900047E0FFEF70057FFC12130F
:400E8000F1121AB290007BE0FF7E00121BD78011900047E0FFEFB40108900049E0FF1213F17F00121DE7D007D006D005D004D003D002D001D000D0D0D093D086D084D08503
:400EC000D082D083D0F0D0E032D2AF9044F474FDF01220FD121E157E0D7FA8121FEF12171B121AB27F01121CCD7F01121D5D7F00121E72900051E4F0A3E4F07B007A007D53
:400F0000017F011217E290007CEFF012194D90007DEFF012194D90007EEFF012194D90007FEFF090007DE0FF90007EE0FB9000517404F07D017C0012122590007EE0FF902D
:400F4000007FE0FB9000517404F07D017C0012122590007FE0FF90007DE0FB9000517404F07D017C0012122590007DE0FF7B017A007979AB017D107C4E12151190007EE02C
:400F8000FF7B017A00797AAB017D107C4E12151190007FE0FF7B017A00797BAB017D107C4E12151190007CE0FF90007DE0FD121AF490007CE0FF7D011218A37E137F5F124F
:400FC000200E121F1A121F681211797F01121C9D80FE2275930078007583467582E8E04401F0009046ECE0F99046FAE0FAB903225420B40012B8001AEA901FFFF0740190EA
:401000001FFEF09046F6F0901FFEE06005901FFFE0FA90480074C0F075810C90000078007920E4F0A3D8FCD9FAEA900065F0020011750B1F750CFD1206F712190002107BEA
:40104000020EC9E493A3F8E493A34003F68001F208DFF48029E493A3F85407240CC8C333C4540F4420C8834004F456800146F6DFE4800B0102040810204080901780E47EE9
:40108000019360BCA3FF543F30E509541FFEE493A360010ECF54C025E060A840B8E493A3FAE493A3F8E493A3C8C582C8CAC583CAF0A3C8C582C8CAC583CADFE9DEE780BE47
:4010C000900053EFF0900054EDF0900055EBF09000597401F0900053E0FFEFC394184003021173900055E0FFEF5401FF7E00EF75F080A4FFAEF0900054E0FEEE547FFEEE6D
:401100004FFF900053E0FE75F008EE90760012055DEFF0900057E0FFEF540FFF7E00EF75F010A4FFAEF0900056E0FEEE540FFEEE4FFF900053E0FE75F008EE907601120529
:401140005DEFF0900058E0FFEF540FFF900053E0FE75F008EE90760212055DEFF0900053E0FF75F008EF90760312055DE4F0900059E4F0900059E0FF229043AAE0FFEF44FF
:4011800001FFEFF09043AAE0FFEF4410FFEFF09043BAE0FFEF4401FFEFF09043BAE0FFEF4410FFEFF090006FE0FFEF6401703E9046F8E0FFEF4402FFEFF09046F9E0FFEF8B
:4011C0004402FFEFF0905891E0FFEF4403FFEFF07F037E00121E189046F8E0FFEF54FDFFEFF09046F9E0FFEF54FDFFEFF0905877E0FFEF4406FFEFF09043A1E0FFEF4401A4
:40120000FFEFF09043B1E0FFEF4401FFEFF09043A2E0FFEF4402FFEFF09043B2E0FFEF4402FFEFF02290004DEFF090004EECF0A3EDF0900050EBF09000527401F090004D86
:40124000E0FFEFC39480507A90004EE0FEA3E0FFEE54F0FE7F00EF4E706890004DE0FF7E08EF8EF0A4FFAEF0EF2400FFEE3478FE900053EEF0A3EFF0900053E0FEA3E0FFDD
:40128000AA06A9077B0190004EE0FCA3E0FD122177900050E0FF90004DE0FE75F008EE90780212055DEFF0900051E0FF90004DE0FE75F008EE90780312055DEFF090005226
:4012C000E4F0900052E0FF2290004EEFF090004EE0FFEFC39403400302135E90004EE0FF90004EE02FF090004EE0FFEF25E024BCF582E43421F583E493FE740193FF8F82DE
:401300008E83C083C082E0FF90004EE0FEEE9021C893FEEEF4FEEF5EFFD082D083EFF090004EE004F090004EE0FFEF25E024BCF582E43421F583E493FE740193FF8F828E4E
:4013400083C083C082E0FF90004EE0FEEE9021C893FEEEF4FEEF5EFFD082D083EFF022C0E0C0F0C083C082C085C084C086758600C093759300C0D075D000C000C001C002EE
:40138000C003C004C005C006C007900077E0FEA3E0FFEF64024E702190007CE0FF90007DE0FD121AF490007CE0FF7D011218A3900077E4F0A3E4F0800A900077E475F00161
:4013C000120335900077E0FEA3E0FF121EF0D007D006D005D004D003D002D001D000D0D0D093D086D084D085D082D083D0F0D0E03290004AEFF090004AE0FFEF5401FF1270
:401400001E9C90004AE0FFEFC313FFEF5401FF121D8B90004AE0FFEF1313543FFFEF5401FF121CFD90004AE0FFEF131313541FFFEF5401FF121C3B90004AE0FFEFC4540FDC
:40144000FFEF5401FF121EC690004AE0FFEFC4135407FFEF5401FF121DB990004AE0FFEFC413135403FFEF5401FF121D2D90004AE0FFEFC41313135401FFEF5401FF121C3F
:401480006C22900053EFF0900054ECF0A3EDF0900056EAF0A3EBF09000587401F0900053E0FFEFC394185063900053E0FF7E08EF8EF0A4FFAEF0EF2404FFEE3476FE90000C
:4014C00059EEF0A3EFF0900059E0FEA3E0FFAA06A9077B01900054E0FCA3E0FD122177900053E0FF7E08EF8EF0A4FFAEF0EF2406FFEE3476FEAA06A9077B01900056E0FCE2
:40150000A3E0FD122177900058E4F0900058E0FF2290004DEFF090004EECF0A3EDF0900050EAF0A3EBF09000527401F090004DE0FFEFC39480506390004DE0FF7E08EF8E73
:40154000F0A4FFAEF0EF2404FFEE3478FE900053EEF0A3EFF0900053E0FEA3E0FFAA06A9077B0190004EE0FCA3E0FD12217790004DE0FF7E08EF8EF0A4FFAEF0EF2406FF3E
:40158000EE3478FEAA06A9077B01900050E0FCA3E0FD122177900052E4F0900052E0FF22900043EFF0900043E0FFEFC39403507D900043E0FF900043E02FF0900043E0FF88
:4015C000EF25E024BCF582E43421F583E493FE740193FF8F828E83C083C082E0FF900043E0FEEE9021C893FEEF4EFFD082D083EFF0900043E004F0900043E0FFEF25E02413
:40160000BCF582E43421F583E493FE740193FF8F828E83C083C082E0FF900043E0FEEE9021C893FEEF4EFFD082D083EFF02290004EEFF090004FECF0A3EDF090004EE0FF84
:40164000EFD3941F5003D38001C340057F0012215190004EE0FFEF541FFF7E00EF25E0FFEE33FEEF2400FFEE3444FEAA06A9077B01122168900051EEF0A3EFF090004EE0A9
:40168000FF7E02EF8EF0A4FFAEF0EF2400FFEE3444FEAA06A9077B0190004FE0FEA3E0FFAD07AC06122177900051E0FEA3E0FF22900053EFF0900054EDF09000567401F02B
:4016C000900053E0FFEFC39418504A900053E0FF75F010EF90701012055DE0FFEF54F1FF900055EFF0900054E0FFEF5407FF7E00EF25E0FFEE33FE900055E0FEEF4EFF9085
:401700000053E0FE75F010EE90701012055DEFF0900056E4F0900056E0FF2290004DE4F090646EE0FFEF5408FF7E00EF4E70047F0180027F00EF700B7B027A64795C122158
:401740006880DD12213C90004DEFF090649CE0FFEF4403FFEFF090649CE0FFEF54FCFFEFF090649DE0FFEF4403FFEFF090649DE0FFEF54FCFFEFF090004DE0FF1220B92290
:40178000420077000041008B0041006A0041007500410070004100760041006F014400710000000044006B0000003341008CFF41008DFF4400800000040041008EFF440020
:4017C00061016E360044005C00005DC0410060184400662EE0000043008600000041008F000090004DEFF090004EEDF090004FEAF0A3EBF090008C740AF090008CE0FF9059
:40180000004DE0FD90004EE0FB900056740AF0900057E4F0900058E4F01210C090008CE0FF90004FE0FCA3E0FD900051E0FAA3E0FB12148290008CE0FF7D021216B090001F
:401840008CE0FF2290004EEFF090004FEDF090004FE0FFEFD394075003D38001C340057F0012215190004EE0FFEFD3941F5003D38001C340057F0012215190004FE0FFEF04
:401880005407FF7E00EF75F020A4FFAEF090004EE0FEEE541FFE74802EF582E43444F583EFF02290004DEFF090004EEDF090004F7401F090004DE0FFEFC39418503C900021
:4018C0004DE0FF75F010EF90701012055DE0FFEF54DFFF90004EE0FEEE60047E2180027E01EF4EFF90004DE0FE75F010EE90701012055DEFF090004FE4F090004FE0FF22D6
:40190000900084747FF09000857480F090004D747FF090004DE0FFEF602190004DE0FFEF14FF90004DE0FE75F008EE90780012055DEFF090004DE014F080D790004DE0FFC8
:4019400075F008EF90780012055DE4F02290004E74FFF012213C90004DEFF0900085E0FFEFD394184026900084E0FF90004EEFF0900085E014F090004EE0FF75F008EF9013
:40198000780012055DE0FF900084EFF090004DE0FF1220B990004EE0FF22900050EFF0900050E0FFEFC394025039900050E0FFEF25E024CEF582E43421F583E493FE7401DD
:4019C00093FF8F828E83C083C082E0FF900050E0FEEE9021D293FEEEF4FEEF5EFFD082D083EFF02290004FEFF090004FE0FFEFC39402503690004FE0FFEF25E024CEF582D8
:401A0000E43421F583E493FE740193FF8F828E83C083C082E0FF90004FE0FEEE9021D293FEEF4EFFD082D083EFF022C2D5E830E70FB2D5E4C39BFBE49AFAE499F9E498F887
:401A4000EC30E717B2D5121A6112043BE4C39BFBE49AFAE499F9E498F8800312043B30D50DE4C39FFFE49EFEE49DFDE49CFC2290004EEFF09046F8E0FFEF4403FFEFF09073
:401A800046F9E0FFEF4403FFEFF090004EE0FF905892EFF07F037E00121E189046F8E0FFEF54FCFFEFF09046F9E0FFEF54FCFFEFF02290004DE4F012213C90004DEFF09073
:401AC000649CE0FFEF4403FFEFF090649CE0FFEF54FCFFEFF090649DE0FFEF4403FFEFF090649DE0FFEF54FCFFEFF090004DE0FF1220B92290004DEFF090004EEDF0900086
:401B00004F7401F090004DE0FFEFC39418501B90004EE0FF90004DE0FE75F010EE90701912055DEFF090004FE4F090004FE0FF227B0C7A0179CF12218490004DEFF0900045
:401B40004DE0FFEF5407FF90586EEFF090004DE0FFEFC4540FFFEF540FFF90586FEFF0905B5874E0F09058767444F02290004DE4F012213C90004DEFF090649CE0FFEF4436
:401B800020FFEFF090649AE0FFEF4410FFEFF090649EE0FFEF4410FFEFF090004DE0FF1220B922758600EF4E6027EF60010E759300900057E0F595A3E0F585A3E0F5848B44
:401BC000938A838982E0A30586F0A31586DFF6DEF4E4F593F5952290004AEEF0A3EFF090646AE0FFEF5402FF7E00EF4E60F17B027A64794C90004AE0FCA3E0FD1221772256
:401C0000EC4D4E700D78FCEF24E950032840FD2200007BF178DA0000EF28FF78FFEE38FEED38FDEC38FC50E7EF2BFFEE38FEED38FDEC38FC40F2220502030490004BEFF0D3
:401C4000905120E0FFEF54F7FF90004CEFF090004BE0FFEF33333354F8FFEF5408FF90004CE0FEEF4EFF905120EFF02290004BEFF0905140E0FFEF54F7FF90004CEFF09083
:401C8000004BE0FFEF33333354F8FFEF5408FF90004CE0FEEF4EFF905140EFF02290004DEFF0904E14E0FFEF54FCFF90004EEFF090004EE0FF90004DE0FEEF4EFF90004EAB
:401CC000EFF090004EE0FF904E14EFF02290004DEFF09051F0E0FFEF54FBFF90004EEFF090004DE0FFEF25E025E0FFEF5404FF90004EE0FEEF4EFF9051F0EFF02290004B50
:401D0000EFF0905120E0FFEF54FBFF90004CEFF090004BE0FFEF25E025E0FFEF5404FF90004CE0FEEF4EFF905120EFF02290004BEFF0905140E0FFEF54FBFF90004CEFF04A
:401D400090004BE0FFEF25E025E0FFEF5404FF90004CE0FEEF4EFF905140EFF02290004DEFF09051F0E0FFEF54FDFF90004EEFF090004DE0FFEF25E0FFEF5402FF90004E1A
:401D8000E0FEEF4EFF9051F0EFF02290004BEFF0905120E0FFEF54FDFF90004CEFF090004BE0FFEF25E0FFEF5402FF90004CE0FEEF4EFF905120EFF02290004BEFF090511F
:401DC00040E0FFEF54FDFF90004CEFF090004BE0FFEF25E0FFEF5402FF90004CE0FEEF4EFF905140EFF02290004AEFF0905100E0FFEF54FDFF90004BEFF090004AE0FFEFA7
:401E000025E0FFEF5402FF90004BE0FEEF4EFF905100EFF022223232EEFA900060E0F88FF0A4FFAEF0E88AF0A42EFEE5F03400FDEF24C9FF78FFEE38FEED38FDE438FC5055
:401E400003021C0022ACEAADA08B938A838982E0F96017A3E0F5EAA3E0F5A0A3E060F4FAA3E0F8A3E0F2DAF8D9E98DA08CEAE4F5932290004DEFF09051F0E0FFEF54FEFF0A
:401E800090004EEFF090004DE0FFEF5401FF90004EE0FEEF4EFF9051F0EFF02290004BEFF0905120E0FFEF54FEFF90004CEFF090004BE0FFEF5401FF90004CE0FEEF4EFF14
:401EC000905120EFF02290004BEFF0905140E0FFEF54FEFF90004CEFF090004BE0FFEF5401FF90004CE0FEEF4EFF905140EFF022900042EFF090008DE0FFEF64FF6008901F
:401F0000008DE0FF1212C8900042E0FF1215A0900042E0FF90008DEFF02290004DE4F090004DE0FFEFC39403501090004DE0FF1212C890004DE004F080E590008D74FFF0AE
:401F40002290004FE4F090004FE0FFEFC39402501090004FE0FF12199A90004FE004F080E590008E74FFF0227F01120C697F10121FAD7F10121FCE9000527408F07B007AA3
:401F8000807D007C907F021209182290004AE4F0A3E4F07B027A64795C12216890004AEEF0A3EFF090004AE0FEA3E0FF2290004DEFF0904102C083C082E0FF90004DE0FE0E
:401FC000EE54F8FEEF4EFFD082D083EFF02290004DEFF0904086C083C082E0FF90004DE0FEEE54F8FEEF4EFFD082D083EFF02290004DEEF0A3EFF01221A390004DE0FEA30B
:40200000E0FF12202D7F051220D112219C2290004DEEF0A3EFF01221B190004DE0FEA3E0FF12204B7F071220E71221AA2290004FEEF0A3EFF07B027A44790290004FE0FEBF
:40204000A3E0FFAD07AC061221772290004FEEF0A3EFF07B027A44790090004FE0FEA3E0FFAD07AC061221772290648C740FF012171B12211212212790648A7440F090645C
:402080008E7408F02290004EEFF0121F4190004EE0FF1219E490004EE0FF90008EEFF022EC4D6011ED60010C8B938A838982E4F0A3DDFCDCFA75930022EF54016004D2AF7A
:4020C0008002C2AFEF5402FF9044F4E054FD4FF02290004FEFF090004FE0FFEFC43354E0FF904481EFF02290004FEFF090004FE0FFEFC43354E0FF904480EFF02290008B5F
:40210000E0FFEF700912206990008B7401F0121B6C2290004DE4F090646AE0FF90004DEFF090004DE0FF2290004DE4F090646EE0FF90004DEFF090004DE0FF229044F4E0C6
:40214000F84402F0E85402FF10AF012274014FFF2290FFFF1205C4EFF09046EA7401F09000011205C4228B938A838982E0FFA3E0FE759300228B938A838982EDF0A3ECF0E0
:40218000759300228B938A838982E0759300FF228B938A838982EDF0759300229044C07402F0229044C87402F0229044C07401F0229044C87401F02232323232513D5B004A
:4021C000513D5B00513D5B002020404080805B035B034020005110001000515000100051C00010010000100001140008000140000A00014C000200015000002000000000B5
:40220000000000000000000000000000000000000000000000000000000000000000000000000000000000000000000000000000000000000000000000000000000000009E
:40224000000000000000000000000000000000000000000000000000000000000000000000000000000000000000000000000000000000000000000000000000000000005E
:40228000000000000000000000000000000000000000000000000000000000000000000000000000000000000000000000000000000000000000000000000000000000001E
:4022C00000000000000000000000000000000000000000000000000000000000000000000000000000000000000000000000000000000000000000000000000000000000DE
:0200000480007A
:4000000019005202138034B00064038A478C0F8E78010101E204010902A802A904010A13000503010C0812012A072E08300231013208340436013E545441580459045B04B6
:400040005F01D608DB04010B23004001020408072008021001120419421B1420403B0159445B205F80632064016701900898029A049B80A704A820AB80AC80AF11B120B228
:4000800029C009C208C403CE01D61ED812E802010C4D1021110112501501161E19011A011C611D011E02230124612502260828612A04310132203440361F37023E543F41A0
:4000C000400341044230440149FF4AFF4BFF4C024E704F0C508C511056025720580459045A245B245D885E085F01684069016AC06B019901B701BF40C003C104C230C405D6
:40010000C50FC6CDC7BEC83DC9FFCAFFCBFFCC23CEF0CF0CD08CD110D608D904DA24DB04DD08DF31E840E901EAC0EB01010D3C0D100EA217141C121D881E04230126802751
:40014000832E082F40314032A036413714401043014588470248014A205004520153D058A05A0460026120620465406E826F1478017D807E40840185409120928096029704
:40018000019A089E01A210A540A608A704B110B280B648C2F0C460CAC0CCF4D0D3D208D60ED81EDE91E202010E0E10012E0136013E405420560458045B045F01AF01B501F1
:4001C000D904DC80DF01010F120A8012011B8026102E805A02620863897D8083408780C208C401CA10D601D80FDE10E408011502E820EC10011B02E820EC100140053380F7
:4002000035808180CC30E2200141031140A780C440014202A940AB8001440708020C010D107C018701C20DDE0101450C63027020851091209401A301B001B402D602DC04D8
:40024000EA08EE0401460444109401AC20D00101470294019C1001480410082101C440C840014902B101B408014C0294019C10014D04B010B401E804EC0801500300010C59
:40028000010E01015101000F00020200000000000006070000000000008F8F0080800000000000000000E000000F0F0000000000B000000000000000230018013F9C1901BE
:4002C000000A0000000000000000000000000000000000000000000000000000000000000000000000000000000000000000000000000000000000000000000000000000F4
:4003000000000000000000000000000000000000000000000000000000000000000000000000000000000000000000000000000000000000000000000000000000000000BD
:40034000000000000000000000000000000000000000000000000000000000000000000000000000000000000000000000000000000000000000000000000000000000007D
:40038000000000000000000000000000000000000000000000000000000000000000000000000000000000000000000000000000000000000000000000000000000000003D
:4003C00000000000000000000000000000000000000000000000000000000000000000000000000000000000000000000000000000000000000000000000000000000000FD
:0200000490006A
:0400000000004005B7
:0200000490105A
:04000000BC90ACAF55
:0200000490303A
:02000000A23725
:0200000490501A
:0C00000000011E02806903011E1522A0F1
:0200000490402A
:4000000000000000000000000000000000000000000000000000000000000000000000000000000000000000000000000000000000000000000000000000000000000000C0
:00000001FF
