:400000000010002011000000890600008906000080B500AF00F03CFB80B584B000AF021CFB1D1A70224A3B1C0B3312781A70214A3B1C0A3312781A701F4B1B68013BFB60D2
:400040001AE01E4B1868391C0B31FA68131C5B009B18C31801331B780B70184B1868391C0A31FA68131C5B009B18C31802331B780B70FB68013BFB60FB68002B0ADB0F4B59
:400080001968FA68131C5B009B185B5CFA1D12789A42D6D90A4B3A1C0B3212781A60094B3A1C0A3212781A60BD4604B080BDC046CCF1FF0FCDF1FF0F5C170000CC00002077
:4000C0001CFF0B4020FF0B4080B500AF194B194A12688021C9020A431A601820FFF79CFF154B19221A60052000F07EFF134B144A1278D2B21A60052001F05AF80D4B0D4A0D
:400100001168104A0A401A600F4B10221A600F4B20221A600E4B802212061A600D4B802212061A600C4B0D4A1A600D4B0D4A1A60BD4680BD00010B402CFF0B4028FF0B402E
:40014000E5F1FF0FFFFFFBFF080202400C02024008010B4004010B40000002400E000080400002401000008080B582B000AF72B6FB1D00221A7023E0FB1D1A78131C5B0048
:400180009B185B002F4A9B183B603B681A78597809020A43997809040A43DB781B0613431A1C3B6819795B791B020B439BB2101C191C00F0F1FAFB1DFA1D127801321A702E
:4001C000FB1D1B78012BD7D91F4B992212041A601E4BEE2212021A601D4BEE221A601D4B20221A601C4BC42292021A601B4B20221A601B4BD82212011A601A4B03221A6038
:40020000194B24221A60194B992212041A60184B992212041A60174B164A1278D2B202210A43D2B21A70134B124A1278D2B206210A43D2B21A70FFF747FF00F0BDFABD46BF
:4002400002B080BD50170000000001400C0001401000014000000440080004401800044008030440000404400804044000500F4030500F4000700F4010B5064C2378002B6C
:4002800007D10548002802D0044800E000BF0121217010BDE0000020000000004C17000008B5084B002B03D00748084900E000BF07480168002903D0064A002A00D090472F
:4002C00008BDC046000000004C170000E4000020C80000200000000080B500AF00F0C8F900F0AAF800F008F800F042F800F0F0F8181CBD4680BDC04680B500AF00F0A4F8E1
:40030000BD4680BD80B584B000AFF860B9607A60154B1B781A1C1549131C5B009B189B00FA685A50104B1B781A1C1049131C5B009B189B00CB180433BA681A600A4B1B78BC
:400340001A1C0A49131C5B009B189B00CB1808337A681A60044B1B780133DAB2024B1A70BD4604B080BDC046FC0000205401002080B582B000AF00237B6006E07B68181C8D
:4003800000F010F87B6801337B60054B1B781A1C7B689A42F2DC181CBD4602B080BDC046FC00002080B584B000AF786021497A68131C5B009B189B005B58181C002100F059
:4003C000A7FA031C002B31D11A497A68131C5B009B189B00CB1804331B68181C00F002FC031C002B22D113497A68131C5B009B189B005B58181C012100F012FB031C002B91
:4004000014D1012000F054FC021C3B1C0F331A7000F08AFB3B1C0F33197806487A68131C5B009B189B00C31808331960181CBD4604B080BD5401002080B500AF00F0D6F9BF
:4004400000F08CFCBD4680BD80B500AF01235B42532032211A1CFFF755FF01235B42532033211A1CFFF74EFF01235B42532034211A1CFFF747FF01235B42532035211A1C1D
:40048000FFF740FF01235B42532036211A1CFFF739FF01235B42532037211A1CFFF732FF5320002100F034FA031C002B0DD12D2000F098FB031C002B07D1082000F092FBBE
:4004C000031C002B01D100F0D9F8BD4680BDC04680B584B000AF364B5B691A023B1C0E331A80334B9B689AB23B1C0E331B88D3189AB23B1C0E331A802D4BDB6A1A023B1C8D
:400500000C331A802A4B1B6A9AB23B1C0C331B88D3189AB23B1C0C331A80254B5B6C1A023B1C0A331A80224B9B6B9AB23B1C0A331B88D3189AB23B1C0A331A803B1C0E3388
:4005400000229B5E802292009B18002B00DA0733DB101A1C3B1C09331A703B1C0C3300229B5E802292009B18002B00DA0733DB101A1C3B1C08331A703B1C0A3300229B5E39
:40058000802292009B18002B00DA0733DB101A1CFB1D1A703B1C093319783B1C08331A78FB1D1B78002000F005F8BD4604B080BD5401002080B586B000AFF860B9607A6084
:4005C0003B602A4B64221A70284B30225A70274B31229A70254B3222DA70244B33221A71224B34225A71214B35229A711F4B3622DA711E4B37221A721C4B38225A721B4B76
:4006000039229A72194B3A22DA72184B3B221A73164B3C225A73154B3D229A73134B3E22DA7310237B6107E0104A7B69D31830221A707B6901337B617B69412BF4DD0B4A32
:4006400040234221D154094A3F234121D154074A41230021D154054B181C00F069FCFA23DB00181C00F080FDF5E7C0461001002080B500AF00F0F2FBBD4680BD80B500AFEE
:4006800000F052FABD4680BD80B500AFFEE7C04680B586B000AF254B7B61254B3B61234B7B61234B3B6132E03B691B68FB603B695B68BB603B699B683B6000237B600CE0E7
:4006C000FB681A68BB681A60BB680433BB60FB680433FB607B6804337B607A683B689A42EED13B69DB683B6000237B6008E0BB6800221A60BB680433BB607B6804337B6068
:400700007A683B689A42F2D13B6910333B617B695A1E9341DBB27A69013A7A61002BC3D100F0E4FFFFF7D8FDFEE7C046010000008417000080B582B000AF00237B600FE075
:400740007B68032B04D8104B7A689200D35800E00E4B0F4A796889008B507B6801337B607B682F2BECD9FFF7FFFC0A4B00221A608023DB058022D205126801210A431A6086
:40078000BD4602B080BDC046000000008906000000000020C000002080B582B000AF786039607A683B68101C00211A1C00F0C4FFBD4602B080BDC04680B500AFBD4680BD54
:4007C00080B500AF00F02CF8BD4680BD80B500AF054B054A1268802109060A431A6000F017F8BD4680BDC0460000064080B500AF064B1B78002B04D1FFF7E2FF034B0122B2
:400800001A70FFF7E3FFBD4680BDC0460001002080B500AF0A2000F071FCBD4680BDC04680B500AF234B00221A60234B234A1A60234B234A12680C210A431A60214B224ADA
:400840001A60224B00221A60214B00221A60214B214A1A60214B00221A600A2000F064FC0A20032100F0F6FB1D4B0A20191C00F0CBFB1C4B00221A601B4B00221A601B4B03
:4008800000221A601A4B1B4A1A601B4B00221A601A4B00221A601A4B10221A70194B00221A80194B00221A60184B00221A60BD4680BDC046000006406000064077080080E4
:4008C0007000064000030640070300800403064010030640000206400701008004020640D9110000C80E0640880E0640480F0640080F064013010000C80F0640880F0640C3
:40090000D4050020E2050020E8050020DC05002080B584B000AF786039600023FB600423BB60374B1B78DBB2102B64D1354B1A680123134002D00823BB605CE00A2000F067
:40094000F3FB7B685A00FF2313407B603B68002B03D12B4B24221A7006E0294B25221A707B68012213437B60274B7A681A60274B274A1A60274B02221A60C046234B1A6881
:40098000254B1340FAD0214B1A680423134002D00023BB601CE01D4B1A680223134002D00223BB6014E0194B1A680123134007D0134B10221A700123BB600123FB6007E0DB
:4009C0000F4B10221A7080235B00BB600123FB600E4B114A1A60FB68002B0CD00F4B0F4A1268520052081A600C4B0C4A1268802109060A431A60BB68181CBD4604B080BD75
:400A0000D40500206400064040020640000F06401703000068000640070100000000064080B584B000AF786039600023FB600423BB60364B1B78DAB220231340DBB2002BE9
:400A40005ED07B685A00FF2313407B603B68002B03D12E4B24221A7006E02C4B25221A707B68012213437B60294B2A4A1A6000F087F9C046284B1A6801231340FAD1274BEA
:400A80007A681A60C046224B1A68254B1340FAD01F4B1A680423134002D00023BB601CE01B4B1A680223134002D00223BB6014E0174B1A680123134007D0144B10221A7033
:400AC0000123BB600123FB6007E0104B10221A7080235B00BB600123FB600D4B104A1A60FB68002B0CD00F4B0E4A1268520052081A600C4B0B4A1268802109060A431A601D
:400B0000BB68181CBD4604B080BDC046D4050020000F0640170300006800064040020640070100000000064080B582B000AF00237B6004233B60254B1B78DAB2202313407D
:400B4000DBB2002B3CD0224B224A116820220A4001D0182200E010221A60C0461E4B1A681E4B1340FAD01C4B1A681023134002D000233B600EE0184B1A680123134004D0A8
:400B800001233B6001237B6004E080235B003B6001237B60104B114A1A600C4B10221A707B68002B0CD00E4B0D4A1268520052081A600B4B0A4A1268802109060A431A60E3
:400BC0003B68181CBD4602B080BDC046D40500206800064064000640000F0640110100000000064080B584B000AF78600023FB600423BB60294B1B78DAB220231340DBB2C2
:400C0000002B46D0264B7A681A60C046254B1A68254B1340FAD0234B1A680423134005D01E4B60221A700023BB601FE01D4B1A680223134005D0194B60221A700223BB6049
:400C400014E0184B1A680123134007D0134B10221A700123BB600123FB6007E00F4B10221A7080235B00BB600123FB600D4B0E4A1A60FB68002B0CD00C4B0C4A12685200D3
:400C800052081A60094B094A1268802109060A431A60BB68181CBD4604B080BDD405002040020640000F0640070100000000064080B584B000AF786001235B42FB601F4BE3
:400CC0001B78DAB220231340DBB2002B30D0C0461B4B1A680423134004D11A4B1A681A4B1340F5D0164B1A680423134010D0174B1B68FB60124B04221A607B68002B03D18A
:400D0000134B04221A6013E00C4B60221A700FE00C4B104A1A60104B0F4A1268520052081A600D4B0C4A1268802109060A431A60FB68181CBD4604B080BDC046D4050020C8
:400D4000C00F0640000F0640010100004003064068000640170300000000064080B582B000AF064B1B889BB27B60044B00221A807B68181CBD4602B080BDC046E20500201D
:400D800080B582B000AF264B1B687B60C04600F0E9F8031C002BFAD0002000F0F1F8214B204A12680F218A431A601F4B1E4A1268520052081A607A682023134011D00020B8
:400DC00000F0DEF80A2000F0F3F9012000F0D8F8C04600F0F9F8031C002BFAD00A2000F0E7F9002000F0CCF80A2000F0E1F90F4B01221A600C4B0C4A1268802109060A436E
:400E00001A60084B074A12680F218A430E210A431A60012000F0B4F8BD4602B080BDC0466400064010000140000006406800064080B500AF00F028F8BD4680BD80B500AF6B
:400E4000054B054A1268802109060A431A6000F017F8BD4680BDC0460000074080B500AF064B1B78002B04D1FFF7E2FF034B01221A70FFF7E3FFBD4680BDC0460801002075
:400E800080B500AFBD4680BD80B500AF174B184A1A60184B00221A60174B01221A60174B174A1A60174B07221A60174B00221A60164B01221A60164B114A1A60154B0022F8
:400EC0001A60154B00221A60144B00221A60144B00221A60134B00221A60134B00221A60124B00221A60BD4680BDC046000007400B0000024000074048000740000307409F
:400F0000070000800403074010030740440007400002074004020740880E0740C80E0740480F0740080F0740C80F0740880F074080B584B000AF78600023FB6009E07A6836
:400F4000FB68D3181B78181C00F0BAFBFB680133FB607A68FB68D3181B78002BEFD1BD4604B080BD80B500AF044B1A68022313405B08DBB2181CBD4680BDC0460404044040
:400F800080B584B000AF021CFB1D1A700D4B1B68DAB23B1C0F3301218A431A70FB1D1A7801231340D9B23B1C0F333A1C0F3212780A431A70034B3A1C0F3212781A60BD46B7
:400FC00004B080BD0004044080B500AF044B1B68DAB201231340DBB2181CBD4680BDC04604040440000000000230800804D0C0460138FDD1C046C0467047EFF3108072B6B4
:40100000704780F31088704780B584B000AF021C3960FB1D1A7080239B05FB60FB1D1B781F2B02D9002000F095F8FB1D1B7810339B00FA68D3181B68BB60FB1D1B78103359
:401040009B00FA68D3183A681A60BB68181CBD4604B080BD90B587B000AF0A1CFB1D011C1970BB1D1A70BB1D1B78032B02D9002000F070F8FB1D1B781F2B02D9002000F0E4
:4010800069F8FB1D1A7803231340DB0006337B613C1C1334FFF7B1FF031C2370FB1D1B789B08DBB29B0014495B181B68FB607B690322111C99400B1CDA43FB681340FB603D
:4010C000BB1D1A787B69111C99400B1CFA681343FB60FB1D1B789B08DBB29B00064A9B18FA681A603B1C13331B78181CFFF789FFBD4607B090BDC04600E400E080B582B0F3
:4011000000AF021CFB1D1A70064BFA1D11781F220A400121081C9040021C1A60BD4602B080BDC04600E100E080B582B000AF021CFB1D1A70064BFA1D11781F220A400121E9
:40114000081C9040021C1A60BD4602B080BDC04680E100E080B582B000AF021CFB1D1A7001BEBD4602B080BD80B582B000AF786008E00C4B1B68181CFFF736FF7B680A4ADD
:401180009B187B607A6880231B029A42F1D8074B1B687A685343181CFFF726FFBD4602B080BDC046DC0000200080FFFFD400002080B582B000AF021CBB1D1A80BB1D1B8837
:4011C000044A12785343181CFFF70EFFBD4602B080BDC046D800002080B582B000AF00233B60C24B1B68002B02D0C04B1B689847BF4B1A680123134002D0BE4B00221A6012
:40120000BD4B1B78DAB220231340DBB2002B3CD0BA4B1A6880235B0013400AD0B84B1B889BB2C022920013439AB2B54B1A8001233B60B24B1A68012313400AD0B04B1B88AB
:401240009BB29022920013439AB2AD4B1A8001233B603B68002B18D0A74B1B78DAB201231340DBB2002B01D0012300E00223A44A128892B291B21A1C0B1C13439BB29AB29F
:401280009F4B1A809C4B00221A709B4B1B78DAB220231340DBB2002B00D1AAE1974B1A68102313401CD0974B10221A60924B1B78DAB201231340DBB2002B01D0012300E004
:4012C00002238F4A128892B291B21A1C0B1C13439BB29AB28A4B1A80874B10221A70BEE1854B1B78DAB208231340DBB2002B29D0824B1A68022313400ED0824B02221A60B9
:401300007F4B1B889BB28822920013439AB27C4B1A8001233B6015E0774B1B78DAB201231340DBB2002B03D0734B25221A7009E0714B24221A70744B1B68002B02D0734B1C
:4013400010221A606C4B1B78DAB204231340DBB2002B00D111E1684B1B78DAB201231340DBB2002B5BD06A4B1A680823134033D0684B1A68684B19680F231940674B1B68E9
:40138000CB18D31A7B607B68082B02D908237B601EE07B68002B1BD1614B614A1168614A0A401A6008237B6001233B6010E05E4B1A685A4B1B68D2185C4B1B68DBB2137028
:4013C000564B1B685A1C554B1A607B68013B7B607B68002BEBD11EE04D4B1A680423134019D0514B1A684D4B1B68D2184F4B1B68DBB21370494B1B685A1C484B1A60474B7E
:401400001A68444B1B689A4203D2494B04221A6001E001233B60474B474A1A60ADE0374B1A680223134032D0364B02221A60434B1A68434B19680F231940414B1868802373
:401440001B02034001D0012300E00023CB18D21A3A4B1A60394B1A683A4B1A60284B1B889BB28422920013439AB2254B1A80364B354A1268802149020A431A60324B324AD4
:401480001168324A0A401A6001233B6075E0304B1A681023134065D013E0284B1A681A4B1B689A4214D22B4B2B4A1168234A12688A181278D2B21A60204B1B685A1C1F4BD2
:4014C0001A601F4B1A680F231340082BE5D100E0C0461A4B1A680C4B1B689A4202D10B4B40221A601D4B1E4A1A6046E0040100208C0E0640880E0640D40500200C0F0640E5
:40150000E2050020000F0640E4050020880F0640CC0F0640F405002008030640E805002060000640FFFEFFFFF00500204003064068000640C00F0640ED0F0000D8050020D6
:4015400008020640DC05002004020640FFFFFEFF8C0F064040020640EC050020800F0640F30700003F4B1A684023134005D03E4B1A683E4B1A6001233B603B68002B6ED01A
:401580003B4B3B4A11683B4A0A401A603A4B00221A603A4B00221A60394B1B78DAB202231340DBB2002B19D0364B1B78DAB201231340DBB2002B01D0092300E00A23324A0B
:4015C000128892B291B21A1C0B1C13439BB29AB22D4B1A802B4B60221A7040E02B4B2C4A116820220A4001D0182200E010221A6035E0244B1B78DAB210231340DBB2002B61
:401600002DD1244B234A1268520052081A601D4B10221A70164B164A11681F4A0A401A60134B134A11681D4A0A401A60124B00221A60124B00221A60194B1A4A1A601A4BAD
:401640001A4A1A601A4B1B4A1A601B4B1B4A1A60104B104A1268802109060A431A60BD4602B080BD8C0F0640D8050020DC05002060000640FFFEFFFFC80F0640880F0640F1
:40168000E0050020D4050020E2050020680006406400064000000640FF5FFFFFFFFCFFFF800F0640ED0F0000C00F0640F3070000400F0640FF0F0000000F06401703000040
:4016C00080B582B000AF7860C046064B1A680F231340082BF9D0044B7A681A60BD4602B080BDC046080207404002074070B50E4B0E4D0024E81A85101E1CAC4204D0A100F4
:40170000725890470134F8E700F02AF80849094A0E1C541AA5100024AC4204D0A300F05880470134F8E770BD6C1700006C1700006C1700007417000000B58218031C9342C1
:4017400002D019700133FAE700BD00000000000000300F40000400400F40000404000000F8B5C046F8BC08BC9E467047A102000035070000F8B5C046F8BC08BC9E467047B7
:401780007902000098170000C800002018000000180500000000000000000000C0F1FF0F00366E01C05D0000180000000000E02E000000000000000000000000000000003B
:4017C00000000000000000000000000000000000000000000000000000000000000000000000000000000000000000000000000000000000000000000000000000000000E9
:4018000000000000000000000000000000000000000000000000000000000000000000000000000000000000000000000000000000000000000000000000000000000000A8
:401840000000000000000000000000000000000000000000000000000000000000000000000000000000000000000000000000000000000000000000000000000000000068
:401880000000000000000000000000000000000000000000000000000000000000000000000000000000000000000000000000000000000000000000000000000000000028
:0200000490303A
:0200000053DAD1
:0200000490402A
:200000000000000000000000000000000000000000000000000000000000000000000000E0
:0200000490501A
:0C000000000204C81193110104CF656DCB
:0200000490600A
:0100000001FE
:00000001FF