:400000000010002011000000650300006503000080B500AF00F0AAF980B584B000AF021CFB1D1A70224A3B1C0B3312781A70214A3B1C0A3312781A701F4B1B68013BFB60B4
:400040001AE01E4B1868391C0B31FA68131C5B009B18C31801331B780B70184B1868391C0A31FA68131C5B009B18C31802331B780B70FB68013BFB60FB68002B0ADB0F4B59
:400080001968FA68131C5B009B185B5CFA1D12789A42D6D90A4B3A1C0B3212781A60094B3A1C0A3212781A60BD4604B080BDC046CCF1FF0FCDF1FF0FD8160000CC000020FC
:4000C0001CFF0B4020FF0B4080B500AF184B184A12688021C9020A431A601820FFF79CFF144B19221A60052000F08AFD124B134A1278D2B21A60052000F092FD0C4B0C4ACE
:4001000011680F4A0A401A600E4B10221A600E4B10221A600D4B802212061A600C4B802212061A600B4B0C4A1A60BD4680BDC04600010B402CFF0B4028FF0B40E5F1FF0F84
:40014000FFFFFBFF080202400C02024008010B4004010B4000000240CF00008080B582B000AF72B6FB1D00221A7023E0FB1D1A78131C5B009B185B00424A9B183B603B68F2
:400180001A78597809020A43997809040A43DB781B0613431A1C3B6819795B791B020B439BB2101C191C00F065F9FB1DFA1D127801321A70FB1D1B78012BD7D9324A334BB2
:4001C000101C191C00F066F9314B902212041A60304BEE2212021A602F4B22221A602F4B2F4A1A602F4B0C221A602F4B20221A602E4B01221A602E4B02221A602D4B0322B1
:400200001A602D4B2D4A1A602D4B20221A602D4B2D4A1A602D4BC02212011A602C4B992212041A602B4B802212031A602A4B992212041A60294B802292021A60284B9922DC
:4002400012041A60274B992212041A60264B802212051A60254B254A1278D2B202210A43D2B21A70214B214A1278D2B206210A43D2B21A70FFF728FF00F04CF9BD4602B0B4
:4002800080BDC046C4160000D0160000D4160000000001400C0001400000044008000440100003000C0004401800044000010440080104400C01044008020440806D030053
:4002C0000003044008030440800D01000C03044000500F4004500F4010500F4014500F4020500F4030500F4034500F4000700F4010B5064C2378002B07D10548002802D0C7
:40030000044800E000BF0121217010BD4801002000000000C016000008B5084B002B03D00748084900E000BF07480168002903D0064A002A00D0904708BDC0460000000026
:40034000C01600004C010020C80000200000000080B500AF00F08EFC00F0E0F862B600F091FBFCE780B500AFFEE7C04680B586B000AF254B7B61254B3B61234B7B61234BBC
:400380003B6132E03B691B68FB603B695B68BB603B699B683B6000237B600CE0FB681A68BB681A60BB680433BB60FB680433FB607B6804337B607A683B689A42EED13B69BA
:4003C000DB683B6000237B6008E0BB6800221A60BB680433BB607B6804337B607A683B689A42F2D13B6910333B617B695A1E9341DBB27A69013A7A61002BC3D100F024FDE3
:40040000FFF7A6FFFEE7C046010000005417000080B582B000AF00237B600FE07B68032B04D8104B7A689200D35800E00E4B0F4A796889008B507B6801337B607B682F2BDA
:40044000ECD9FFF78BFE0A4B00221A608023DB058022D205126801210A431A60BD4602B080BDC046000000006503000000000020C000002080B582B000AF786039607A681F
:400480003B68101C00211A1C00F00DFDBD4602B080BDC04680B586B000AF7860396000233B6100237B612EE07B699B007A68D3181B68BB603B1C0F33BA681A70BB68FF225A
:4004C0009343BB6017E03B695B003A68D3181B781A1CBB68D3183A69520039688A1852781A703B6901333B613B1C0F333A1C0F321278013A1A703B1C0F331B78002BE2D128
:400500007B6901337B617B69002BCDD0BD4606B080BDC04680B500AFBD4680BD80B500AF064B181C00F060FA054B181C00F0B4FA044B181C00F00AFBBD4680BD6507000002
:40054000790700008D07000080B500AF00F090FA00F0E8FA00F040FBBD4680BD80B500AF00F090FA00F0E8FA00F040FBBD4680BD80B582B000AF021CFB1D1A70FB1D1B78B0
:40058000012B07D0022B09D0002B0BD100F024F9031C08E000F0DEF9031C04E000F000FA031C00E0FF23181CBD4602B080BDC04680B584B000AF021CFB1D1A703B1C0F33A5
:4005C00000221A70FFF7CAFF012000F02BF9FB1D1B78181CFFF7CCFF031C002B03D03B1C0F3300221A70002000F01CF9012000F03FF9FB1D1B78181CFFF7BAFF031C002B13
:4006000003D03B1C0F3301221A70002000F030F9012000F053F9FB1D1B78181CFFF7A8FF031C002B03D03B1C0F3302221A70002000F044F9012000F067F9FB1D1B78181C8E
:40064000FFF796FF031C002B03D03B1C0F3303221A70002000F058F9FFF776FF3B1C0F331B78181CBD4604B080BDC04690B585B000AF021CFB1D1A703B1C0E3300221A7037
:40068000FB1D1B78181CFFF773FF031C002B19D13B1C0F3301221A703C1C0E34FB1D1B78181CFFF785FF031C23703B1C0E331A78FB1D18782A49131C5B009B181B180122FC
:4006C0005A5433E03B1C0F3300221A703B1C0D3300221A7025E03B1C0D331A78FB1D18781F49131C5B009B181B185B5C002B11D03B1C0D331A78FB1D18781949131C5B0083
:400700009B181B1800225A543B1C0E333A1C0D3212781A703B1C0D333A1C0D32127801321A703B1C0D331B78032BD4D93B1C0E331B781A1C5200D318D9B23B1C0C33FA1D74
:4007400012788A181A703B1C0C331A783B1C0F331B78101C191C00F023F8BD4605B090BD6401002080B500AF0020FFF77FFF00F041F8BD4680BDC04680B500AF0120FFF797
:4007800075FF00F0F5F8BD4680BDC04680B500AF0220FFF76BFF00F011F9BD4680BDC04680B590B000AF0A1CFB1D011C1970BB1D1A70BB1D1A78FB1D1B78381C0C3005499F
:4007C00000F07AFB3B1C0C33181C00F0BDFABD4610B080BDDC16000080B500AF044B1A68202313405B09DBB2181CBD4680BDC0460403044080B582B000AF094B1B68D9B2B8
:40080000FB1D20220A401A70054BFA1D12781A60FB1D1B785B09DBB2181CBD4602B080BD1003044080B584B000AF021CFB1D1A700E4B1B68DAB23B1C0F3304218A431A70B1
:40084000FB1D1B789B00DAB204231340D9B23B1C0F333A1C0F3212780A431A70034B3A1C0F3212781A60BD4604B080BD0002044080B584B000AF021CFB1D1A700E4B1B6839
:40088000DAB23B1C0F3308218A431A70FB1D1B78DB00DAB208231340D9B23B1C0F333A1C0F3212780A431A70034B3A1C0F3212781A60BD4604B080BD0002044080B584B05B
:4008C00000AF021CFB1D1A700E4B1B68DAB23B1C0F3310218A431A70FB1D1B781B01DAB210231340D9B23B1C0F333A1C0F3212780A431A70034B3A1C0F3212781A60BD461F
:4009000004B080BD0002044080B584B000AF021CFB1D1A700E4B1B68DAB23B1C0F3320218A431A70FB1D1B785B01DAB220231340D9B23B1C0F333A1C0F3212780A431A70CA
:40094000034B3A1C0F3212781A60BD4604B080BD0002044080B500AF044B1A68022313405B08DBB2181CBD4680BDC0460400044080B582B000AF094B1B68D9B2FB1D0222C1
:400980000A401A70054BFA1D12781A60FB1D1B785B08DBB2181CBD4602B080BD1000044080B500AF044B1B68DAB201231340DBB2181CBD4680BDC0460401044080B582B073
:4009C00000AF084B1B68D9B2FB1D01220A401A70044BFA1D12781A60FB1D1B78181CBD4602B080BD1001044080B582B000AF786000F048F87B68181C00F008F8032000F010
:400A000011F800F035F8BD4602B080BD80B582B000AF7860024B7A68DA64BD4602B080BD0000002090B585B000AF021CFB1D1A701E23FB603C1C0B3400F0EBF8031C237090
:400A40000A4B0A4A126892009108FA1D1078FA68041C9440221C0A431A603B1C0B331B78181C00F0DAF8BD4605B090BD00E400E080B500AF024B08221A60BD4680BDC0462C
:400A800000E100E080B500AF024B08221A60BD4680BDC04680E100E080B582B000AF786000F04AF87B68181C00F008F8032000F011F800F037F8BD4602B080BD80B582B05E
:400AC00000AF7860024B7A681A64BD4602B080BD0000002090B585B000AF021CFB1D1A700623FB603C1C0B3400F093F8031C23700B4B0B4A1268C021101C8843011CFA1D4E
:400B00001078FA68041C9440221C0A431A603B1C0B331B78181C00F080F8BD4605B090BD00E400E080B500AF024B01221A60BD4680BDC04600E100E080B500AF024B01221C
:400B40001A60BD4680BDC04680E100E080B582B000AF786000F04AF87B68181C00F008F8032000F011F800F037F8BD4602B080BD80B582B000AF7860024B7A685A64BD4642
:400B800002B080BD0000002090B585B000AF021CFB1D1A700E23FB603C1C0B3400F039F8031C23700A4B0A4A11680A4A1140FA1D1078FA68041C9440221C0A431A603B1C2F
:400BC0000B331B78181C00F028F8BD4605B090BD00E400E0FF3FFFFF80B500AF024B02221A60BD4680BDC04600E100E080B500AF024B02221A60BD4680BDC04680E100E0AF
:400C00000230800804D0C0460138FDD1C046C0467047EFF3108072B6704780F31088704780B582B000AF021CBB1D1A80BB1D1B88044A12785343181CFFF7E2FFBD4602B0F4
:400C400080BDC046D800002080B500AF00F028F8BD4680BD80B500AF054B054A1268802109060A431A6000F017F8BD4680BDC0460000074080B500AF064B1B78002B04D13D
:400C8000FFF7E2FF034B01221A70FFF7E3FFBD4680BDC0467001002080B500AFBD4680BD80B500AF174B184A1A60184B00221A60174B01221A60174B07221A60164B0722E0
:400CC0001A60164B00221A60154B01221A60154B154A1A60154B00221A60154B00221A60144B00221A60144B00221A60134B00221A60134B00221A60124B00221A60BD4669
:400D000080BDC046000007400B000002400007404800074000030740040307401003074044000740000207400700008004020740880E0740C80E0740480F0740080F074076
:400D4000C80F0740880F074080B584B000AF78600023FB6009E07A68FB68D3181B78181C00F00CF8FB680133FB607A68FB68D3181B78002BEFD1BD4604B080BD80B582B03A
:400D800000AF7860C046064B1A680F231340082BF9D0044B7A681A60BD4602B080BDC0460802074040020740002934D00123002210B488422CD301242407A14204D2814209
:400DC00002D209011B01F8E7E400A14204D2814202D249005B00F8E7884201D3401A1A434C08A04202D3001B5C0822438C08A04202D3001B9C082243CC08A04202D3001B0A
:400E0000DC082243002803D01B0901D00909E3E7101C10BC7047002801D00020C04307B4024802A14018029003BDC046190000000029F0D003B5FFF7B9FF0EBC4243891A20
:400E40001847C0467047C04670B50E4B0E4D0024E81A85101E1CAC4204D0A100725890470134F8E700F064FC0849094A0E1C541AA5100024AC4204D0A300F058804701345C
:400E8000F8E770BD3C1700003C1700003C1700004417000010B50023934203D0CC5CC4540133F9E710BD00B58218031C934202D019700133FAE700BD0EB400B59CB01DAB26
:400EC00002A904CB822202900861920009488A810122886048615042074AC88110681D9A019300F063F8029900230B701CB008BC03B01847FFFFFF7F44010020F7B5019103
:400F00009168071C141C002940D190239289D80002423BD02568216963696E1A58000096C6180098F50FAB1901305D10A84201DB009D0235381C53050FD5291C00F004FBA3
:400F4000061E13D02169009AFFF7A4FFA7891649802239401143A18111E02A1C00F04AFB061E0CD1381C216900F0A6FA0C203860A58940263543A5810124604213E0009B67
:400F80006561F018ED1A26612060A560A668002E08DD694627680A793A70A3680137013B2760A3600020FEBD7FFBFFFFF0B5A1B0049007938B890E1C171C19060FD5326935
:400FC000002A0CD1402100F0BFFA30603061002803D1049C0C262660D6E04020706108AD00212024302369616C76AB763C1C2278002A04D1E01B069019D003970FE0252A07
:40100000F8D00134F3E70399321C09780498FFF775FF039A01320392013000D1AFE003990698CB1B8342EEDB0D9F3A180D922178002900D1A3E001206A46002347426332FF
:4010400001342B60EB606F60AB601370AB65504F2178381C052200F0C1FA002807D0C71B2B680120B840184328600134EFE72B68D90603D568462021633001701A0703D5E9
:401080006A462B276332177021782A2901D00B9B0EE0079A1068111D0791002801DB0B9004E0022247421343EF602B60013409E020783038092804D80A277B4301341B1800
:4010C000F6E70B9323782E2B18D161782A2909D1079B02341A68191D0791002A0DDA012042420AE00134002220783038092804D80A277A4301341218F6E70992254F217894
:40110000381C032200F06AFA002806D02B68C21B4021914019432960013421781E4806222976671C00F05AFA002817D01B4800280BD12868079C0723C10501D5E41800E050
:4011400007349C430834079414E007AA00920498291C321C124B00E000BF07E007AC00940498291C321C0E4B00F08CF8059005994A1C04D00D99059A8C180D9436E7B589A0
:40118000690601D40D9801E00127784221B0F0BDFA160000001700000417000000000000FD0E0000F7B5151C01930A698B6800900C1C934200DA131C201C2B604330017898
:4011C000002901D001332B602668B00602D52F6802372F602268062616401CD0261C4336377822683E1C731E9E4192061CD5A319181C40303021271CC17045373A784133B6
:40120000DA70023610E0617E0098019A089FB847013006D00136E3682868191A8E42F2DBDCE7012040422CE00027B7420ADAE119433109780098019A089B98470130F0D090
:401240000137F2E72B68256806212940E6680025042903D1F01AC743FD170540A2682669B24201DD931BED180027AF4208DAA17E0098019A089EB0470130D2D00137F4E7DF
:401280000020FEBDF0B50D1C8BB0433507930590069204950A7E0C1C109B6E2A00D1A8E012D8632A24D009D8002A00D1B1E0582A00D0C1E045310A707D4D51E0642A1FD0F3
:4012C000692A00D0B8E01BE0732A00D1A5E009D86F2A2BD0702A00D0AEE00A68202616430E6038E0752A21D0782A00D0A4E032E018680E1C051D1D600368423633709EE01C
:4013000026681F68300606D4750604D5381D186000203D5E02E03D1D1D603D68644B002D3BDA04992D226D420A7036E027681E683D0605D4780603D5351D1D60358802E03D
:40134000311D196035685A4B207E039308276F281ED00A271CE0271C45377820554D38701A682668111D03951960300603D4750601D5158800E01568F00702D520231E4395
:4013800026601027002D03D12668202086432660261C43360022327001E003930A276168A160002903DB2068042398432060002D02D1049E00290ED0049E281C391CFFF776
:4013C00037FD039A013E515C281C3170391CFFF7EBFC051EF1D1049B9A1B2261082F33D12768F80730D5606890422DDC013262602AE008681E684969050606D4450604D53C
:40140000351D1D603368198003E0321D1A603768396000202061049E16E01E68311D19603668301C00F01EF965682061A84200D925612369636004E0261C42363270012106
:401440002161049F00223A7007990598009109AA211C069BFFF7A6FE01300CD0351C2269AB1B93420ADA29780598069A079FB84701350130F3D10122504217E02668B1077A
:4014800005D4099BE068984210DA181C0EE00025E7680998391A8D42F3DA617E0598069A079EB0470130E6D00135F1E70BB0F0BD0B1700001C17000030B5002940D00439B8
:4014C0000B68002B00DAC9181E4A1368141C002B02D14B60116033E099420FD20D684A199A4205D110682B1855680B604D6000E04B60216024E08A4203D8131C5A68002AAB
:40150000F9D11D685C198C420BD10C682D1958191D60904214D1116852686C181C605A600EE08C4202D90C21016009E008680D18954203D114685268001908604A60596089
:4015400030BDC0467801002070B50323CD1C9D430835061C0C2D01D20C2501E0002D2DDB8D422BD31C4A1368111C1C1C002C12D02068421B0CD40B2A02D92260A41815E0F0
:40158000A34202D166680E601CE065685D6019E0231C6468EAE7301C291C00F051F8421C0CD0C41C03218C43844201D1256009E0211A301C00F044F80130F7D10C2434608F
:4015C000002008E0201C0B300722211D9043431A01D05D42E55070BD7801002000B5C9B28218904204D003788B4202D00130F8E7002000BDF8B5061C0C1C151C002904D1CD
:40160000111CFFF7A1FF041C18E0002A03D1FFF753FF2C1C12E000F02CF8A8420ED2301C291CFFF791FF071E07D0211C2A1CFFF731FC301C211CFFF73FFF3C1C201CF8BDB2
:4016400038B5074C0023051C081C236000F01CF8431C03D12168002900D0296038BDC046800100200023C25C0133002AFBD1581E704704390B6800B5181F002B02DAC85806
:401680001918081F00BD00000A4A00B51368002B0CD018186946884202D81060181C00BD054B0C2201201A604342F7E7034B1360EFE7C0467C0100208001002088010020A6
:4016C0000000000000300F40000400400F40000402600F4002011101040000004B6579206576656E743A2025642C204B65793A2025640A0D000000004300232D302B20003F
:40170000686C4C006566674546470030313233343536373839414243444546003031323334353637383961626364656600000000F8B5C046F8BC08BC9E467047190300009F
:4017400011040000F8B5C046F8BC08BC9E467047F102000068170000C800002080000000400000000000000000000000C0F1FF0F00366E01C05D0000180000000000E02ECD
:401780000000000000000000000000000000000000000000000000000000000000000000F8160000000000000000000000000000000000000000000000000000000000001B
:4017C000000000000000000000000000000000000000000000000000000000000000000000000000E0000020000000000000000000000000000000000000000000000000E9
:4018000000000000000000000000000000000000000000000000000000000000000000000000000000000000000000000000000000000000000000000000000000000000A8
:401840000000000000000000000000000000000000000000000000000000000000000000000000000000000000000000000000000000000000000000000000000000000068
:401880000000000000000000000000000000000000000000000000000000000000000000000000000000000000000000000000000000000000000000000000000000000028
:4018C00000000000000000000000000000000000000000000000000000000000000000000000000000000000000000000000000000000000000000000000000000000000E8
:0200000490303A
:02000000B88DB9
:0200000490402A
:200000000000000000000000000000000000000000000000000000000000000000000000E0
:0200000490501A
:0C000000000204C81193110104CFCA20B3
:0200000490600A
:0100000001FE
:00000001FF